:100000000C94540C0C94850C0C94850C0C94850C5D
:100010000C94850C0C94850C0C94850C0C94850C1C
:100020000C94850C0C94850C0C94850C0C94850C0C
:100030000C94850C0C94850C0C94850C0C94850CFC
:100040000C94850C0C94315B0C94850C0C94850CF1
:100050000C94850C0C94850C0C943D540C942F53EB
:100060000C94850C0C947B5B0C94715B0C94850C4C
:100070000C94850C0C94850C0C94850C0C94850CBC
:100080000C94850C0C94850C0C94850C0C94850CAC
:100090000C94850C0C94850C0C94850C0C94850C9C
:1000A0000C94850C0C94850C0C94850C0C94850C8C
:1000B0000C94850C0C94850C0C94850C0C94850C7C
:1000C0000C94850C0C94850C0C94850C0C94850C6C
:1000D0000C94850C0C94850C0C94850C0C94850C5C
:1000E0000C94850C084AD73B3BCE016E84BCBFFD07
:1000F000C12F3D6C74319ABD56833DDA3D00C77FF8
:1001000011BED9E4BB4C3E916BAAAABE0000008090
:100110003F05A84CCDB2D44EB93836A9020C50B91F
:10012000918688083CA6AAAA2ABE000000803F004B
:100130000C943E230C9448230C94CA0C0C949323E7
:100140000C947F230C94FF0C0C9489230C9418239B
:100150000C940E230C94ED0C0C94FB0C0C94F822D4
:100160000C94B30C0C94E30C0C94A55B0C946123DD
:100170000C94050D0C94D20C0C94090D0C94F70CF6
:100180000C9422230C942B230C94F10C0C94D90C7A
:100190000C94DF0C0C9475230C9434230C94B80C41
:1001A0000C94D60C0C94FE220C94E90C0C946B234A
:1001B0000C9452230C94CE0C0C9404234E414E49C3
:1001C0004E495459494E46CDCCCC3D0AD7233C1715
:1001D000B7D13877CC2B329595E6241FB14F0A0062
:1001E0000020410000C84200401C4620BCBE4CCA52
:1001F0001B0E5AAEC59D7470012C0190012701B0F1
:10020000012201C0011D01F001180110021301308B
:10021000020E016002090190020401C002FF000009
:1002200003FA004003F5008003F000D003EB002048
:1002300004E6007004E100E004DC004005D700C0E3
:1002400005D2004006CD00D006C8008007C30030AC
:1002500008BE00F008B900C009B400B00AAF00B091
:100260000BAA00D00CA500000EA000500F9B00C0F0
:100270001096005012910000148C00C0158700B039
:10028000178200B0197D00D01B7800001E7300405B
:10029000206E0090226900F024640040275F0090E7
:1002A000295A00E02B5500102E500020304B001032
:1002B000324600E033410090353C00103737007083
:1002C000383200A0392D00B03A2800A03B2300604E
:1002D0003C1E00103D1900903D1400103E0F0070B0
:1002E0003E0A00C03E0500003F0000403FFBFF808B
:1002F0003FF6FFC03FF1FF434F4D4D554E4943413F
:1003000054494F4E0044525952554E004552524F97
:10031000525300494E464F004543484F00000021CC
:1003200000240027002A002D0030003300010100C6
:1003300000040107010A012121204B494C4C206394
:10034000617573656420627920746F6F206D7563C9
:100350006820696E6163746976652074696D6520D3
:100360002D2063757272656E7420636F6D6D616EA2
:10037000643A20005072696E7465722073746F70F5
:100380007065642064756520746F206572726F7289
:10039000732E2046697820746865206572726F72CA
:1003A00020616E6420757365204D39393920746F72
:1003B00020726573746172742E202854656D7065A7
:1003C0007261747572652069732072657365742E2D
:1003D00020536574206974206166746572207265AB
:1003E0007374617274696E67290A004E6F204368E6
:1003F00065636B73756D2077697468206C696E65D1
:10040000206E756D6265722C204C617374204C698E
:100410006E653A2000636865636B73756D206D6966
:10042000736D617463682C204C617374204C696E29
:10043000653A20004C696E65204E756D62657220CC
:100440006973206E6F74204C617374204C696E6503
:10045000204E756D6265722B312C204C61737420B7
:100460004C696E653A20004D313130005365726938
:10047000616C20737461747573206D69736D617440
:1004800063680A00627573793A20706175736564F8
:1004900020666F7220696E7075740A0062757379D8
:1004A0003A2070617573656420666F72207573659C
:1004B000720A00627573793A2070726F63657373A4
:1004C000696E670A006563686F3A004572726F7201
:1004D0003A0020496E76616C6964206578747275A3
:1004E00064657220004361703A006F70656E00545D
:1004F0005249474745524544003A20007A5F6D69AA
:100500006E00795F6D696E00785F6D696E0052658F
:10051000706F7274696E6720656E6473746F70209B
:100520007374617475730A005761726E696E673A0D
:1005300020486F6D696E672042756D702044697642
:1005400069736F72203C20310A00020204000048E7
:100550004300004843000048430000A0400000A0C2
:1005600040000000400000484300004843000048AD
:1005700043000000000000000000000000000096A2
:1005800043000096430000A0400000C8410000A0C6
:10059000420000A0420000C8430000FA43B80B002C
:1005A00000B80B0000640000001027000020440089
:1005B00020490020204D3330312050005049442044
:1005C00073657474696E67733A0020204D3230365B
:1005D000205800486F6D65206F66667365743A0039
:1005E000204A0020530020204D3230352042004167
:1005F0006476616E6365643A20423C6D696E5F7338
:1006000065676D656E745F74696D655F75733E20B7
:10061000533C6D696E5F66656564726174653E200A
:10062000543C6D696E5F74726176656C5F6665657A
:1006300064726174653E204A3C6A756E635F6465EE
:10064000763E0020520020204D32303420500041B0
:100650006363656C65726174696F6E2028756E697D
:1006600074732F7332293A20503C7072696E745F34
:10067000616363656C3E20523C72657472616374A1
:100680005F616363656C3E20543C74726176656C97
:100690005F616363656C3E0020204D32303120582D
:1006A000004D6178696D756D20416363656C65729D
:1006B0006174696F6E2028756E6974732F733229A7
:1006C0003A0020204D3230332058004D6178696D5A
:1006D000756D206665656472617465732028756E3A
:1006E0006974732F73293A005374657073207065B1
:1006F0007220756E69743A0020440020204D32301B
:10070000302053002044697361626C65640A0046BE
:10071000696C616D656E742073657474696E67735E
:100720003A0020286D6D29002020473231202020FA
:10073000203B20556E69747320696E206D6D003BFF
:10074000200024F4D43050C38E20C2A24017828BE4
:100750007011127A910D816CD90AA861E108C7580D
:100760006607615143061E4B5D05C145A7041A414A
:100770001104093D9803713931034036DB026533BA
:100780009102D4305402802E1D02632CEE01752A92
:10079000C501B028A001102781018F2564012B24F9
:1007A0004B01E0223401AC211F018D200D01801F7F
:1007B000FC00841EED00971DDF00B81CD200E61B74
:1007C000C600201BBC00641AB200B219A8000A19A6
:1007D000A0006A189900D117910040178B00B51638
:1007E000840031167E00B31579003A157300C714E2
:1007F0006F0058146A00EE13660088136300251317
:100800005E00C7125B006C12570015125400C11134
:10081000510070114F0021114B00D61049008D106E
:1008200047004610440002104200C00F4000800FF5
:100830003E00420F3C00060F3B00CB0E3800930EEB
:1008400037005C0E3500270E3400F30D3200C10D69
:100850003100900D3000600D2E00320D2D00050D81
:100860002C00D90C2B00AE0C2900850C29005C0C47
:100870002700350C27000E0C2600E80B2400C40BC3
:100880002400A00B23007D0B23005A0B2100390B01
:100890002100180B2000F80A1F00D90A1E00BB0A0D
:1008A0001E009D0A1D00800A1D00630A1C00470AE5
:1008B0001B002C0A1B00110A1A00F7091A00DD0997
:1008C0001900C4091900AB091900920917007B0926
:1008D0001800630917004C09160036091600200994
:1008E00016000A091500F5081500E0081400CC08E8
:1008F0001400B8081400A4081400900813007D0820
:1009000012006B0813005808120046081200340841
:100910001100230811001208110001081100F0074E
:100920001000E0071000D0071000C0071000B0074B
:100930000F00A107100091070E0083070F00740736
:100940000F0065070E0057070E0049070E003B0712
:100950000D002E070E0020070D0013070D000607DF
:100960000D00F9060C00ED060D00E0060C00D406A3
:100970000C00C8060C00BC060C00B0060C00A40657
:100980000B0099060C008D060B0082060B00770603
:100990000B006C060B0061060A0057060B004C06A4
:1009A0000A0042060A0038060A002E060A0024063B
:1009B0000A001A060A001006090007060A00FD05CB
:1009C0000900F4050900EB050900E2050900D90555
:1009D0000900D0050900C7050900BE050900B505D5
:1009E0000800AD050800A50509009C050800940550
:1009F00008008C050800840508007C0508007405C3
:100A000008006C050700650508005D050700560530
:100A100008004E0507004705070040050800380597
:100A20000700310507002A050700230507001C05FC
:100A30000600160507000F05070008050600020559
:100A40000700FB040600F5040700EE040600E804B6
:100A50000600E2040700DB040600D5040600CF040C
:100A60000600C9040600C3040600BD040600B7045E
:100A70000600B1040500AC040600A6040600A004AC
:100A800005009B04060095040500900406008A04F6
:100A9000050085040500800406007A04050075043D
:100AA0000500700405006B04050066040500610480
:100AB00005005C04050057040500520405004D04C0
:100AC000050048040500430405003E0404003A0400
:100AD000050035040500300404002C04050027043B
:100AE0000400230405001E0404001A040400160474
:100AF0000500110404000D040400090405000404A9
:100B0000040000040400FC030400F8030400F403E0
:100B10000400F0030400EC030400E8030400E40311
:100B20000400E0030400DC030400D8030400D40341
:100B30000400D0030400CC030400C8030300C50371
:100B4000030024F404D9201BC40C5C0E9804C409CF
:100B50005F0265077101F405F900FB04B300480466
:100B60008700C10369005803550003034500BE0216
:100B70003A008402310053022A00290225000402AF
:100B80002000E4011C00C8011900AF011700980102
:100B90001400840113007101100061011000510163
:100BA0000E0043010D0036010B002B010B0020014C
:100BB0000B00150109000C01090003010800FB00EE
:100BC0000800F3000800EB000700E4000600DE0068
:100BD0000600D8000600D2000600CC000500C700C1
:100BE0000500C2000500BD000400B9000400B50006
:100BF0000400B1000400AD000400A9000400A50039
:100C00000300A20003009F0004009B000300980063
:100C100003009500020093000300900003008D0084
:100C200002008B000300880002008600020084009E
:100C30000300810002007F0002007D0002007B00B3
:100C400002007900020077000100760002007400C3
:100C5000020072000100710002006F0002006D00CE
:100C600001006C0002006A000100690002006700D8
:100C700001006600010065000100640002006200DE
:100C8000010061000100600001005F0002005D00E2
:100C900001005C0001005B0001005A0001005900E6
:100CA00001005800010057000100560001005500E6
:100CB00001005400010053000000530001005200E5
:100CC000010051000100500001004F0001004E00E2
:100CD00000004E0001004D0001004C0001004B00DF
:100CE00000004B0001004A000100490001004800DB
:100CF00000004800010047000100460000004600D7
:100D000001004500000045000100440001004300CF
:100D100000004300010042000000420001004100C9
:100D2000000041000100400001003F0000003F00C2
:100D300001003E0000003E0001003D0000003D00BB
:100D400001003C0000003C0000003C0001003B00B2
:100D500000003B0001003A0000003A0001003900A9
:100D600000003900010038000000380000003800A1
:100D70000100370000003700010036000000360097
:100D8000000036000100350000003500000035008D
:100D90000100340000003400000034000100330082
:100DA0000000330000003300010032000000320078
:100DB000000032000100310000003100000031006D
:100DC00001003000000030000000300001002F0062
:100DD00000002F0000002F0000002F0001002E0057
:100DE00000002E0000002E0001002D0000002D004C
:100DF00000002D0000002D0001002C0000002C0040
:100E000000002C0000002C0001002B0000002B0033
:100E100000002B0000002B0001002A0000002A0027
:100E200000002A0000002A0001002900000029001B
:100E3000000029000000290000002900010028000E
:100E40000000280000002800000028000000280002
:100E500001002700000027000000270000002700F5
:100E600000002700010026000000260000002600E8
:100E700000002600000026000100250000002500DB
:100E800000002500000025000000250000002500CE
:100E900001002400000024000000240000002400C1
:100EA00000002400010023000000230000002300B4
:100EB00000002300000023000000230000002300A6
:100EC0000100220000002200000022000000220099
:100ED000000022000000220001002100000021008B
:100EE000000021000000210000002100000021007E
:100EF0000000210001002000000020000000200070
:100F00000000200000002000000020000000200061
:100F10000000200001001F0000001F0000001F0053
:100F200000001F0000001F0000001F0000001F0045
:100F300001001E0000001E0000001E0000001E0038
:100F40000000043700001E290000511B000058104B
:100F5000000010090000CC040000780200004101EC
:100F6000000020436F756E7420583A00626564007B
:100F70002C2073797374656D2073746F7070656461
:100F800021204865617465725F49443A20004572CA
:100F9000723A204D415854454D50004D41585445EA
:100FA0004D5020747269676765726564004572729E
:100FB0003A204D494E54454D50004D494E54454DF3
:100FC000502074726967676572656400202F002085
:100FD000403A002020506C616E6E65724275666604
:100FE000657242797465733A200020467265652007
:100FF0004D656D6F72793A2000436F6D70696C6555
:10100000643A204D617220323920323032310A0088
:10101000204C61737420557064617465643A2032A9
:101020003032312D30332D3239207C2041757468B7
:101030006F723A20286E6F6E652C2064656661754C
:101040006C7420636F6E666967290A006275676653
:1010500069782D322E302E780A004D61726C696EDF
:101060000020536F667477617265205265736574F2
:101070000A00205761746368646F67205265736566
:10108000740A002042726F776E206F75742052656B
:101090007365740A002045787465726E616C205225
:1010A000657365740A00506F77657255700A007336
:1010B000746172740A00205A3A0020593A0020588C
:1010C0003A00656E6473746F7073206869743A20B7
:1010D000006F6B00496E76616C696420657874728C
:1010E000756465720A00486F6D6520257325732548
:1010F0007320466972737400546F6F2066617220AA
:1011000066726F6D207265666572656E63652070CC
:101110006F696E740A00000000000000000000000B
:10112000000023646566696E652044454641554C60
:10113000545F004B6420004B6920004B702000502E
:101140004944204175746F74756E652066696E69D7
:1011500073686564212050757420746865206C6123
:101160007374204B702C204B6920616E64204B649B
:1011700020636F6E7374616E74732066726F6D207E
:1011800062656C6F7720696E746F20436F6E66695D
:101190006775726174696F6E2E680A005049442049
:1011A0004175746F74756E65206661696C65642144
:1011B0002074696D656F75740A00544845524D413D
:1011C0004C2052554E4157415900546865726D612B
:1011D0006C2052756E617761790048656174696E43
:1011E00067204661696C65640048656174696E6773
:1011F000206661696C656400504944204175746FD4
:1012000074756E65206661696C6564212054656D36
:10121000706572617475726520746F6F206869679C
:10122000680A00204B643A2000204B693A200020D5
:101230004B703A200020436C6173736963205049FE
:1012400044200A002054753A2000204B753A2000B3
:10125000206D61783A2000206D696E3A200020648C
:101260003A200020626961733A20005049442041CD
:1012700075746F74756E652073746172740A0050B2
:101280004944204175746F74756E65206661696CA0
:101290006564212054656D70657261747572652096
:1012A000746F6F20686967680A005049442041756F
:1012B000746F74756E65206661696C656421204287
:1012C0006164206865617465722069640A006469FC
:1012D0007300656E0043290A0061626C6564202812
:1012E0006D696E2074656D702000436F6C642065BD
:1012F0007874727564657320617265200020643AA9
:101300000020693A0020703A00496E76616C696489
:101310002065787472756465720A0020466C6F7778
:101320003A200046523A004F4646004F4E002058A1
:101330000020204D61783A2000200020204D696E69
:101340003A2000536F667420656E6473746F707317
:101350003A20004D3230362058003F4A206F7574D5
:10136000206F662072616E67652028302E30312034
:10137000746F20302E33290A00205400205200417F
:101380006363656C65726174696F6E3A2050002FFB
:101390002F004D4541545041434B00434F4F4C4566
:1013A000525F54454D5045524154555245004348B3
:1013B000414D4245525F54454D504552415455525E
:1013C0004500424142595354455050494E4700410F
:1013D000524353004D4F54494F4E5F4D4F44455378
:1013E00000544845524D414C5F50524F5445435470
:1013F000494F4E004C4F4E475F46494C454E414D7C
:1014000045004155544F5245504F52545F53445F2D
:101410005354415455530053445F57524954450067
:1014200052455045415400534443415244005052A8
:101430004F4D50545F535550504F525400454D45F9
:101440005247454E43595F50415253455200434124
:1014500053455F4C494748545F4252494748544EB0
:1014600045535300544F47474C455F4C49474854F8
:101470005300534F4654574152455F504F574552C2
:10148000004255494C445F50455243454E54004C30
:101490004556454C494E475F44415441005A5F50C0
:1014A000524F42450052554E4F5554004155544FEE
:1014B0004C4556454C005052494E545F4A4F4200ED
:1014C00050524F4752455353004155544F52455087
:1014D0004F52545F54454D5000564F4C554D455456
:1014E00052494300454550524F4D0042494E4152EA
:1014F000595F46494C455F5452414E534645520050
:1015000053455249414C5F584F4E5F584F46460035
:101510004649524D574152455F4E414D453A4D6106
:10152000726C696E206275676669782D322E302E76
:101530007820284D6172203239203230323120310A
:10154000333A34343A30352920534F555243455FAE
:10155000434F44455F55524C3A6769746875622E33
:10156000636F6D2F4D61726C696E4669726D776144
:1015700072652F4D61726C696E2050524F544F430B
:101580004F4C5F56455253494F4E3A312E30204D05
:10159000414348494E455F545950453A33442050E1
:1015A00072696E7465722045585452554445525FB5
:1015B000434F554E543A3120555549443A6365647A
:1015C00065326132662D343161322D343734382D35
:1015D000396231322D6335356336326633363766DC
:1015E000660A004D3131332053006F6666001803E0
:1015F00013030C030503F70244454255473A006FB5
:101600006B0020573A002569730025696D20256914
:1016100073002569682025696D2025697300256997
:1016200064202569682025696D2025697300256976
:101630007920256964202569682025696D20256940
:1016400073005072696E742074696D653A200047AA
:10165000322F47332062616420706172616D65745E
:101660006572730A0020746F6F206C6F6E6720655F
:101670007874727573696F6E2070726576656E74BA
:1016800065640A0020636F6C6420657874727573FA
:10169000696F6E2070726576656E7465640A00FF0E
:1016A000FFFFDB0FC93F45BCDA3F8FB30240FCF0C0
:1016B000274056946140FE4B9B4084A5D840E023D0
:1016C0001841346A5641E859974164DBD5416E2789
:1016D0001742B4B75542CE1A9742C8AED542B58824
:1016E0005A43D40684BFA65FA7BF7443E0BF10B1BE
:1016F0001AC01C2C58C0E8F697C0B849D6C04E4E48
:1017000017C124D355C1802497C1A0B5D5C1121AE1
:1017100017C244AE55C2781797C26CACD5C2678861
:101720005AC320746F6F206C6F6E67206578747277
:101730007573696F6E2070726576656E7465640A84
:101740000020636F6C6420657874727573696F6EC6
:101750002070726576656E7465640A00220A005511
:101760006E6B6E6F776E20636F6D6D616E643A2085
:10177000220020453A00205A3A0020593A00583AAF
:1017800000204500205A00205900204D39322058B1
:1017900000526573656E643A200000002200250047
:1017A00028002B002E00310034000201000005014A
:1017B00008010B01050505050705080808080202D0
:1017C00002020A0A080804040404010101010101DB
:1017D00001010303030303030303040707070C0CBE
:1017E0000C0C0C0C0C0C0202020206060606060685
:1017F00006060B0B0B0B0B0B0B0B0102102020082A
:10180000081020401020408002010201080402015B
:1018100001020408102040808040201008040201CA
:101820008004020180402010080402010804020123
:1018300001020408102040800102040810204080AA
:1018400000000A0B02090C0D0E080703040100003A
:101850000000000000000000000000000000000088
:101860000000000000000000000000001211100045
:101870000000000000000000000000000000000068
:101880000000000000005072696E7465722068618B
:101890006C7465642E206B696C6C28292063616C04
:1018A0006C6564210A00A55B11241FBECFEFD1E255
:1018B000DEBFCDBF00E00CBF12E0A0E0B2E0E4ED7F
:1018C000F4ED00E00BBF02C007900D92AA34B107FF
:1018D000D9F72BE0AAE4B2E001C01D92AE37B207FF
:1018E000E1F71CE0C4E5DCE000E006C02197010957
:1018F000802FFE010E942367C335D10780E00807CF
:10190000A9F70E94D15B0C94686A0C940000382FF0
:10191000E9E4F8E18491E3E0F8E12491EDEBF7E10B
:101920009491992309F435C0882311F181508231B3
:10193000F8F4E82FF0E08827EF55F34F8F4F0C9421
:101940002367D20CD60CB30CCA0CCE0CB80CD90C35
:10195000DF0CE30CE90CED0CF10CF70CFB0CB80CF4
:10196000FF0C050D090D809180008F77809380001A
:10197000E92FF0E0EE0FFF1FE656F84EA591B49167
:101980008FB7F894EC91311148C020952E232C93F9
:101990008FBF0895809180008F7DE8CF8091800077
:1019A000877FE4CF84B58F7784BDE2CF84B58F7D08
:1019B000FBCF8091B0008F778093B000D9CF80911A
:1019C000B0008F7DF9CF809190008F778093900049
:1019D000CFCF809190008F7DF9CF80919000877F4D
:1019E000F5CF8091A0008F778093A000C1CF809128
:1019F000A0008F7DF9CF8091A000877FF5CF8091E7
:101A000020018F7780932001B3CF809120018F7DBB
:101A1000F9CF80912001877FF5CF2E2BB8CF0F9380
:101A20001F934091EB0986E040FF87E050E070E0B3
:101A300060E08A019B01369527951795079500FD73
:101A40008D7F92E076956795579547959A95D1F752
:101A500040FD8B7F1F910F9108953FB7F8948091BF
:101A6000550390915603A0915703B091580326B5A2
:101A7000A89B05C02F3F19F00196A11DB11D3FBFC6
:101A8000BA2FA92F982F8827BC01CD01620F711D95
:101A9000811D911D42E0660F771F881F991F4A958F
:101AA000D1F708958F929F92AF92BF92CF92DF921B
:101AB000EF92FF926B017C010E942D0D4B015C01A6
:101AC000C114D104E104F104B9F00E942D0D68198C
:101AD00079098A099B09683E73408105910580F365
:101AE00021E0C21AD108E108F10888EE880E83E0EF
:101AF000981EA11CB11CE4CFFF90EF90DF90CF9017
:101B0000BF90AF909F908F9008952FB7F8946091F9
:101B100051037091520380915303909154032FBF4E
:101B200008952091470B3091480B21153105E9F0BC
:101B30008091450B9091460B0296245031098217F3
:101B400093079CF490933C0B80933B0B0E94850D74
:101B5000605E714B8F4F9F4F60933D0B70933E0BB8
:101B600080933F0B9093400B089510923D0B109281
:101B70003E0B10923F0B1092400B0895CF93DF93D2
:101B800010920205C1E4DBE01F821E820E94910DCB
:101B900018862C98DF91CF910895BC012091D30233
:101BA0003091D4024091D3025091D40224173507CA
:101BB00031F481E02617370709F080E008959A0193
:101BC000F1CF00000000000080910B0380FF2AC0CD
:101BD00089988FEF8093890280910B03869580FF0F
:101BE00024C08F9A8FEF80938A0280910B03869591
:101BF000869580FF1DC080910B0182708093090142
:101C00008FEF80938B0280910B0386958695869546
:101C100080FF16C016988FEF80938C0200000000A2
:101C200000000895899A81E0D5CF8F9881E0DBCFBD
:101C300080910B01809582708093090181E0E1CF52
:101C4000169A81E0E9CF843021E0920714F084E015
:101C500091E09093480B8093470B0C94910DAF92B9
:101C6000BF92CF92DF92EF92FF920F931F93CF9389
:101C7000DF93CAE0DAE001E515E08AE1A82E8AE008
:101C8000B82EC12CD12C7601C39469917991899198
:101C900099910E94DC62288939894A895B890E946E
:101CA0003D630E94B168F8016193719381939193B0
:101CB0008F01C616D706E806F90610F46B017C0101
:101CC000AC16BD0611F76FEF7FEFCB01A7019601B0
:101CD0000E94B466209361053093620540936305CA
:101CE00050936405DF91CF911F910F91FF90EF907A
:101CF000DF90CF90BF90AF900895CF92DF92EF9298
:101D0000FF928091F504882309F457C0C090F10434
:101D1000D090F204E090F304F090F40420E030E07E
:101D2000A901C701B6010E94D762882309F445C002
:101D300020E030E040E05FE3C701B6010E943D6370
:101D40009B01AC010E943D632BED3FE049E450E470
:101D50000E943D639B01AC0160E070E080E89FE37E
:101D60000E9438686B017C01C092E104D092E204C9
:101D7000E092E304F092E40460910F02709110028B
:101D8000072E000C880B990B0E94DE622AE037EDCB
:101D900043E25CE30E943D63A70196010E943D631C
:101DA0006093390270933A0280933B0290933C0215
:101DB000FF90EF90DF90CF900895C12CD12C80E858
:101DC000E82E8FE3F82ED0CF8091620B9091630BB9
:101DD000891B8F7019F490E080E0089590915F0B5B
:101DE000992351F0833030F48FEF890F19F08093ED
:101DF0005F0BF1CF10925F0B8091630B27E4829F02
:101E0000C001112486589A4FFC01208120FDE3CFA8
:101E10002091630B2F5F2F702093600B3091630B29
:101E20002091610B321304C02091600B2093610B51
:101E3000089590916F0081E091FD02C080E00895C7
:101E400090916F009D7F90936F000895EFE6F0E012
:101E50008081826080830895CF93C82F0E94190FDC
:101E600094E0C99F90011124F901EA52FD4F2E51CF
:101E70003D4FD9014D915D916D917C91408351838E
:101E80006283738391E09093D502882319F0CF91F8
:101E90000C94260FCF910895CF92DF92EF92FF928C
:101EA000CF93DF93C82F0E94190F94E0C99FE001E0
:101EB0001124FE01EE51FD4FC080D180E280F380FD
:101EC00081110E94260FC959DA4FC701B6010E943D
:101ED000DE62288139814A815B810E943D63DF9106
:101EE000CF91FF90EF90DF90CF900895CF92DF9247
:101EF000EF92FF92CF93DF93C82F0E94190F94E0C7
:101F0000C99FE0011124FE01EA52FD4FC080D1803B
:101F1000E280F38081110E94260FC959DA4FC70170
:101F2000B6010E94DE62288139814A815B810E946C
:101F30003D63DF91CF91FF90EF90DF90CF900895B8
:101F4000CF93DF9324E0829FC0011124EC01C250A3
:101F5000D64FFC01EB51FB4F845F9A4FDC012D9172
:101F60003D914D915C9160817181828193810E944C
:101F70003E67688379838A839B83DF91CF9108953D
:101F80008F929F92AF92BF92CF92DF92EF92FF9289
:101F9000CF93DF9320911902222309F49EC0EC0114
:101FA0008091EB09C82ED12CF12CE12C80FF2CC0A4
:101FB00080901B0290901C02A0901D02B0901E0207
:101FC000288139814A815B81C501B4010E949E69E3
:101FD000181624F488829982AA82BB8280902702F4
:101FE00090902802A0902902B0902A02288139817D
:101FF0004A815B81C501B4010E94D76287FF04C09A
:1020000088829982AA82BB82D701C601B695A7951C
:102010009795879580FF2CC080901F02909020029A
:10202000A0902102B09022022C813D814E815F81DF
:10203000C501B4010E949E69181624F48C829D8209
:10204000AE82BF8280902B0290902C02A0902D0235
:10205000B0902E022C813D814E815F81C501B4017B
:102060000E94D76287FF04C08C829D82AE82BF82AD
:1020700082E0F694E794D794C7948A95D1F7C0FE8E
:102080002CC0C0902302D0902402E0902502F09052
:102090002602288539854A855B85C701B6010E94DD
:1020A0009E69181624F4C886D986EA86FB86C090F5
:1020B0002F02D0903002E0903102F0903202288559
:1020C00039854A855B85C701B6010E94D76287FFC3
:1020D00004C0C886D986EA86FB86DF91CF91FF903F
:1020E000EF90DF90CF90BF90AF909F908F9008952A
:1020F000CF92DF92EF92FF9280917C02659B62C04B
:10210000816080937C029091030180917C0291FF19
:102110005BC0826080937C0280917C024B9B56C0A6
:10212000846080937C02C090C602C0FE10C0809183
:102130000B0380FF0CC080917C0280FF08C080915F
:102140003C05816080933C0580E00E942C0FD12CDF
:10215000F12CE12CD701C601B695A79597958795E7
:1021600080FF11C080910B03869580FF0CC0809189
:102170007C0281FF08C080913C05826080933C0511
:1021800081E00E942C0F82E0F694E794D794C794E4
:102190008A95D1F7C0FE1CC080910B038695869569
:1021A00080FF16C080917C0282FF12C080913C05A6
:1021B000846080933C0582E0FF90EF90DF90CF90A9
:1021C0000C942C0F8E7F9DCF8D7FA4CF8B7FA9CFBA
:1021D000FF90EF90DF90CF9008950F931F93809121
:1021E0000705813019F50E94850D00917802109144
:1021F000790220917A0230917B02601B710B820B75
:10220000930B28EE33E040E050E00E94B46660910A
:102210007402709175028091760290917702620F3C
:10222000731F841F951F1F910F91089560910305DF
:10223000709104058091050590910605D6CF109206
:102240000705109278021092790210927A02109289
:102250007B0210920305109204051092050510925E
:102260000605109274021092750210927602109276
:1022700077020895809107058130F1F08230C9F42A
:102280000E94ED1060937402709375028093760241
:102290009093770281E0809307050E94850D6093FB
:1022A00078027093790280937A0290937B0281E0A6
:1022B00008950E941F11EECF80E0089580910705D8
:1022C0008150823070F4109207050E94850D609352
:1022D000030570930405809305059093060581E03E
:1022E000089580E00895282F90913705833021F4D8
:1022F00095FD0FC094FD0FC0892F90E0B0E0A0E0E5
:1023000004C0B695A795979587952A95D2F78170C1
:10231000089581E0089580E008952FEB280F2A3179
:1023200008F047C0E22FF0E0809108059091090580
:10233000A0910A05B0910B0504C0B695A795979595
:1023400087952A95D2F780FD02C081700895E65ADC
:10235000FD4FE081EE2341F18091EC099091ED0970
:10236000E80FF92FF11D808190ED980F9A3030F031
:102370008E3251F4818180538A3098F4F093210594
:10238000E093200581E008958D3211F08B3249F4FD
:10239000818190ED980F9A3088F38E3211F482810A
:1023A000EACFF0E0E0E0EACF10922105109220059C
:1023B000E9CF80E008950E948D11882341F081E0EB
:1023C0002091200530912105232B09F480E0089508
:1023D000129A08955F9A8091FC048E7F8093FC048A
:1023E0008A9A8091FC048D7F8093FC04809108017F
:1023F00080958170809306018091FC048B7F80938F
:10240000FC040C94E81181E008959091C00095FFC0
:10241000FCCF8093C60081E090E008950C940512F3
:10242000CF93DF93EC018991882319F00E940E125B
:10243000FACF8DE00E940E128AE0DF91CF910C94CA
:102440000E12CF92DF92EF92FF920F931F93CF93D2
:10245000DF93CDB7DEB7A0970FB6F894DEBF0FBEFF
:10246000CDBF442309F445C061157105810591056F
:1024700079F100E0C42ED12CF12CE12CA7019601BA
:102480000E94B46611E0100FE1E0F0E0EC0FFD1FD8
:10249000E00FF11D07FDFA956083B901CA01012F14
:1024A000611571058105910549F7115010F1E1E0C1
:1024B000F0E0EC0FFD1FE10FF11D17FDFA95908183
:1024C00087E39A3008F480E3890F0E940E12EDCF63
:1024D00080E3A0960FB6F894DEBF0FBECDBFDF91AC
:1024E000CF911F910F91FF90EF90DF90CF900C94C0
:1024F0000E12A0960FB6F894DEBF0FBECDBFDF91CF
:10250000CF911F910F91FF90EF90DF90CF900895A2
:10251000682F70E090E080E04AE00C942112BC014A
:1025200090E080E04AE00C9421128F929F92AF924B
:10253000BF92CF92DF92EF92FF92CF936B017C011B
:10254000B42E20E030E0A9010E94D76287FF07C0C7
:102550008DE20E940E12F7FAF094F7F8F094C0E0C2
:1025600060E070E080E09FE3CB1541F02DEC3CECA7
:102570004CEC5DE30E943D63CF5FF6CFA70196016F
:102580000E943E676B017C010E94B1684B015C01B7
:102590004AE00E942112CC2379F1C501B4010E94C6
:1025A000DC629B01AC01C701B6010E943D676B0173
:1025B0007C018EE20E940E12C150F0F020E030E06B
:1025C00040E251E4C701B6010E943D636B017C010A
:1025D0000E94B1684B015C014AE00E942112C501D2
:1025E000B4010E94DC629B01AC01C701B6010E94EC
:1025F0003D676B017C01E0CFCF91FF90EF90DF90C2
:10260000CF90BF90AF909F908F900895CF92DF9220
:10261000EF92FF92CF936B017C01C42F4A3069F493
:10262000F7FE0BC0F094E094D094C094C11CD11C70
:10263000E11CF11C8DE20E940E124C2FC701B60165
:10264000CF91FF90EF90DF90CF900C942112BC01BE
:10265000990F880B990B4AE00C940613CF93DF93E4
:10266000EC018991882319F00E940E12FACFDF91B4
:10267000CF910895CF93DF93EC01FE0184912196D1
:10268000882319F00E940512F8CFDF91CF910895A9
:10269000E2E5FAE08081818381E997E10E943A13C3
:1026A0006091D40A7091D50A8091D60A9091D70A88
:1026B0006F5F7F4F8F4F9F4F4AE00E9406138DE060
:1026C0000E940E128AE00C940E12CF93C82FCB01F9
:1026D0000E943A1389EF94E00E943A138AEE94E044
:1026E000CC2311F08FEE94E00E943A138AE0CF9150
:1026F0000C9405128EE095E00E943A138CB168E0CC
:1027000075E085FB882780F90E946513809103019D
:1027100062E075E0869581700E94651389B16CEF67
:1027200074E083FB882780F90C9465130F931F9343
:10273000CF938C01C62F85EE94E00E943A13C80116
:102740000E943A138AE30E94051280E38C0F0E94D4
:1027500005128AE0CF911F910F910C940512CF9230
:10276000DF92EF92FF926A017B010E943A1342E0EE
:10277000C701B601FF90EF90DF90CF900C949512B7
:102780004F925F926F927F928F929F92AF92BF9281
:10279000CF92DF92EF92FF920F931F93CF93DF932D
:1027A000CEEED9E04C845D846E847F840EEF19E018
:1027B000F80124813581468157816C817D818E812C
:1027C0009F810E943E674B015C01F80120853185A5
:1027D00042855385688579858A859B850E943E67F9
:1027E0006B017C01F8012081318142815381688134
:1027F00079818A819B810E943E67AB01BC018EE793
:1028000097E10E94AF13B501A4018AE797E10E9406
:10281000AF13B701A60186E797E10E94AF13B3019A
:10282000A20182E797E1DF91CF911F910F91FF9075
:10283000EF90DF90CF90BF90AF909F908F907F9060
:102840006F905F904F900C94AF13CF92DF92EF9206
:10285000FF926A017B010E943A134AE0C701B60168
:10286000FF90EF90DF90CF900C940613CF93DF93FF
:10287000EC01488159816A817B8182E69FE00E9458
:1028800025144C815D816E817F818AE797E10E94EA
:102890002514488559856A857B8586E797E10E94DE
:1028A00025148AE0DF91CF910C940512CF93DF932A
:1028B000CDB7DEB72C970FB6F894DEBF0FBECDBFF5
:1028C0000E94C0130E94190F9CE0E2EEF2E0DE01CC
:1028D000119601900D929A95E1F781110E94260FB1
:1028E000CE0101960E9436142C960FB6F894DEBFE6
:1028F0000FBECDBFDF91CF910895CF93DF93EB0152
:102900000E943A13CE01DF91CF910C9427138F923E
:102910009F92AF92BF92CF92DF92EF92FF920F936E
:102920001F93CF93C82F01E41BE0F80166817781E4
:10293000072E000C880B990B0E94DE626B017C0154
:10294000F80164817581072E000C880B990B0E9499
:10295000DE624B015C0180E20E94051284E50E9468
:1029600005128AE30E94051242E0C501B4010E94EB
:1029700095128CEC9FE00E943A1342E0C701B60129
:102980000E94951262E070E080E090E00E94520D9B
:1029900085E1C802F0011124EF5BF44F608570E01F
:1029A0008FEC9FE0CF911F910F91FF90EF90DF9000
:1029B000CF90BF90AF909F908F900C947D148BEC34
:1029C00094E00C943A13C82F0E94BE0D0E94DF14AD
:1029D00086E898E10E943A1389EE93E030E6019789
:1029E00029F0232F2A950000E9F7F9CFF89489EE12
:1029F00093E038EE019729F0232F2A950000E9F79C
:102A0000F9CF0E94BE0DCC2321F00E94EA11A895B7
:102A1000FECF0E94E811FBCF0F931F93CF93C82FD7
:102A20008B0180913605813099F40E94DF14C80132
:102A30000E943A1380E79FE00E943A13C7FD18C036
:102A40008C2FCC0F990B0E9427138AE00E9405124D
:102A50000E94BE0DA8958091F20281110EC081E006
:102A60008093F20280E88093360580E00E94E314B0
:102A70008CE69FE00E943A13E8CFCF911F910F910F
:102A8000089585EC94E00C943A138823A9F10E94F0
:102A9000411540911E0A50911F0A6091200A7091C1
:102AA000210A8AE897E10E94AF134091220A5091CF
:102AB000230A6091240A7091250A87E897E10E9411
:102AC000AF134091260A5091270A6091280A70910D
:102AD000290A84E897E10E94AF1340912A0A509195
:102AE0002B0A60912C0A70912D0A81E897E10E94CF
:102AF000AF138AE00C94051280E20E940512C9CF40
:102B0000CF93DF930E944115C091EC09D091ED095C
:102B10008FE597E10E943A13CE010E942E138CE5B7
:102B200097E1DF91CF910C943A130F931F93CF93BA
:102B30008C01C62F0E9441158FE397E00E943A1343
:102B4000C8010E943A13CC2331F08AE0CF911F9143
:102B50000F910C940512CF911F910F9108951F931F
:102B6000CF93DF93C82F11E01827811102C00E9474
:102B7000411588E297E00E943A1382E297E00E94B2
:102B80003A138AE00E9405128AE00E940512D09151
:102B9000F504C1110DC060E08FE097E00E9495152B
:102BA000DD2309F48FC18AE00E9405120E944115BD
:102BB0006D2F70E08BEF96E00E947D144091F10440
:102BC0005091F2046091F3047091F40488EF96E060
:102BD0000E94AF138AE00E940512C11105C061E096
:102BE00088EE96E00E949515812F0E944515C1112F
:102BF00007C061E08BEC96E00E9495150E9441159C
:102C000040912E0A50912F0A6091300A7091310A3A
:102C100082EC96E00E94AF134091320A5091330A41
:102C20006091340A7091350A87E897E10E94AF13EA
:102C30004091360A5091370A6091380A7091390AEA
:102C400084E897E10E94AF1340913A0A50913B0A01
:102C500060913C0A70913D0A81E897E10E94AF13B0
:102C60008AE00E940512C11107C061E081EA96E086
:102C70000E9495150E94411560910A0A70910B0AF5
:102C800080910C0A90910D0A0E94DC62AB01BC019C
:102C900088E996E00E94AF1360910E0A70910F0AC6
:102CA0008091100A9091110A0E94DC62AB01BC0174
:102CB00087E897E10E94AF136091120A7091130A9E
:102CC0008091140A9091150A0E94DC62AB01BC014C
:102CD00084E897E10E94AF136091160A7091170A79
:102CE0008091180A9091190A0E94DC62AB01BC0124
:102CF00081E897E10E94AF138AE00E940512C1119A
:102D000007C061E08FE496E00E9495150E9441158E
:102D100040913E0A50913F0A6091400A7091410AE9
:102D200086E496E00E94AF134091420A5091430A14
:102D30006091440A7091450A83E496E00E94AF13C3
:102D40004091460A5091470A6091480A7091490A99
:102D500089E793E10E94AF138AE00E940512C11136
:102D600007C061E08FEE95E00E9495150E94411525
:102D700060911A0A70911B0A80911C0A90911D0A99
:102D80000E94DC62AB01BC0186EE95E00E94AF13AD
:102D900040914A0A50914B0A60914C0A70914D0A39
:102DA00083EE95E00E94AF1340914E0A50914F0A76
:102DB0006091500A7091510A89E793E10E94AF1324
:102DC00040913D0550913E0560913F057091400551
:102DD00080EE95E00E94AF138AE00E940512C111B7
:102DE00007C061E083ED95E00E9495150E944115B2
:102DF0004091E5045091E6046091E7047091E80485
:102E00008AEC95E00E94AF134091E9045091EA04E6
:102E10006091EB047091EC0487E897E10E94AF1396
:102E20004091ED045091EE046091EF047091F00434
:102E300084E897E10E94AF138AE00E940512C11155
:102E400007C061E08CEB95E00E9495150E9441154A
:102E500040914A0B50914B0B60914C0B70914D0B74
:102E600083EB95E00E94AF132CEA35EC47E25EE37A
:102E700060914E0B70914F0B8091500B9091510BC4
:102E80000E943868AB01BC0180EB95E00E94AF1353
:102E90002CEA35EC47E25EE36091520B7091530BE4
:102EA0008091540B9091550B0E943D63AB01BC0186
:102EB0008DEA95E00E94AF138AE0DF91CF911F91D8
:102EC0000C94051284E097E00E943A136FCE809133
:102ED000520A9091530A2FEF3FEF981751F0E92FC4
:102EE000F0E0EE5AF54F228130E09F5F9F7790939C
:102EF000530AC90108950F931F93CF938C01C62FD6
:102F00000E94DF144091D40A5091D50A6091D60AEC
:102F10007091D70AC8010E9425148AE00E94051208
:102F20000E9467170196E1F78C2F0E9448131092B8
:102F3000D90A1092D80ACF911F910F9108954F92FC
:102F40005F926F927F928F929F92AF92BF92CF9239
:102F5000DF92EF92FF920F931F93CF93DF93CDB742
:102F6000DEB76A970FB6F894DEBF0FBECDBF9A8F5B
:102F7000898F5B018A01DC01D6966D917D918D91DF
:102F80009C91D9970E94DC626B017C01F501208144
:102F90003181428153810E943D630E941C682B0154
:102FA0003C01D8012D913D914D915C91C701B60135
:102FB0000E943D630E941C684B015C01C301B20189
:102FC0000E94B168698B7A8B8B8B9C8B68377105FB
:102FD0008105910540F428E730E040E050E0298B7E
:102FE0003A8B4B8B5C8BC501B4010E94B1686D8735
:102FF0007E878F87988B683771058105910540F42E
:1030000088E790E0A0E0B0E08D879E87AF87B88B1F
:10301000E98DFA8DEE5BFF4F208131814281538132
:1030200029833A834B835C83CA01B9010E94DE6223
:103030002B013C0169897A898B899C890E94DC6219
:1030400069877A878B879C8720E030E0A901C301DC
:10305000B2010E94D762882309F43BC1A7019601FF
:10306000C701B6010E943D634B015C0129853A8589
:103070004B855C85CA01B9010E943D639B01AC018F
:10308000C501B4010E943D674B015C01A30192019F
:10309000C301B2010E943E679B01AC01C501B401AE
:1030A0000E9438680E941C680E94B1686D837E830C
:1030B0008F83988769817A818B819C819095809597
:1030C000709561957F4F8F4F9F4F0E94DE624B013D
:1030D0005C016D857E858F8598890E94DC6269839D
:1030E0007A838B839C8320E030E0A901C501B40181
:1030F0000E94D762882309F4F0C029813A814B816C
:103100005C81CA01B9010E943D636D8B7E8B8F8B00
:10311000988FA7019601C701B6010E943D639B01EC
:10312000AC016D897E898F89988D0E943D676B0106
:103130007C01A5019401C501B4010E943E679B0179
:10314000AC01C701B6010E9438680E94E068A98DF1
:10315000BA8D95968D909D90AD90BC909897750185
:1031600064012D813E814F815885C21AD30AE40A39
:10317000F50A0E94B168C61AD70AE80AF90AF7FEEA
:103180006EC020E030E0A901C301B2010E94D76205
:10319000882309F4A6C0C501B4010E94DC626B015A
:1031A0007C01A3019201C301B2010E943E679B0111
:1031B000AC01C701B6010E943D636B017C0129850A
:1031C0003A854B855C85CA01B9010E943D639B012C
:1031D000AC01C701B6010E943D676B017C012981EA
:1031E0003A814B815C81CA01B9010E943D639B0118
:1031F000AC01C701B6010E943E676B017C0120E073
:1032000030E040E850E4C301B2010E943D639B01FD
:10321000AC01C701B6010E9438680E941C686B01AE
:103220007C0120E030E0A9010E949E6918161CF084
:10323000C12CD12C7601C701B6010E94B1686D8303
:103240007E838F83988786169706A806B90620F492
:103250008D829E82AF82B886C12CD12C76018D8161
:103260009E81AF81B885E98DFA8D81A792A7A3A72A
:10327000B4A7C80ED91EEA1EFB1EC5A6D6A6E7A691
:10328000F0AA29893A894B895C8922AF33AF44AFD0
:1032900055AFFE962D853E854F8558892083318315
:1032A000428353836A960FB6F894DEBF0FBECDBF3C
:1032B000DF91CF911F910F91FF90EF90DF90CF9012
:1032C000BF90AF909F908F907F906F905F904F9046
:1032D000089560E070E0CB01E5CE60E070E0CB01E6
:1032E00034CF60E070E0CB0198CF8F929F92AF9285
:1032F000BF92CF92DF92EF92FF920F931F93CF93E3
:10330000DF936091430B7091440BB0E4A0E04A2F2F
:1033100050E09A012B0F311D3595279521111BC0C7
:10332000E9EFF1E025913491832F2093450B8093B1
:10333000460BA8951092E004DF91CF911F910F9159
:10334000FF90EF90DF90CF90BF90AF909F908F90C5
:103350000895B22FDECF2A1711F0B21303C0E5EFA4
:10336000F2E0E0CFC9010197880F991F880F991FDC
:10337000FC01E950FE4FE590F490FC01E550FE4F52
:10338000C591D4916E157F0524F3A22FC617D707D8
:103390000CF4BDCFFC01E750FE4F05911491FC01E8
:1033A000E350FE4FC590D4906E197F09072E000C94
:1033B000880B990B0E94DE624B015C01B601601B19
:1033C000710B072E000C880B990B0E94DE629B018B
:1033D000AC01C501B4010E943D634B015C01BE011B
:1033E0006E197F09072E000C880B990B0E94DE6274
:1033F0009B01AC01C501B4010E9438686B017C01DE
:10340000B801110F880B990B0E94DE629B01AC0181
:10341000C701B6010E943E670E94AA68262F872F27
:1034200084CF2F923F924F925F926F927F928F92B2
:103430009F92AF92BF92CF92DF92EF92FF920F9343
:103440001F93CF93DF93CDB7DEB761970FB6F89494
:10345000DEBF0FBECDBF8091E004811119C061961F
:103460000FB6F894DEBF0FBECDBFDF91CF911F9195
:103470000F91FF90EF90DF90CF90BF90AF909F9013
:103480008F907F906F905F904F903F902F90089516
:103490000E9475190E94850D6B017C012091450BDE
:1034A0003091460B398B288BB901330F880B990B60
:1034B0000E94DE624B015C0120E03CEF4FE756E4E6
:1034C0000E949E6918160CF4E2C16091470B70913E
:1034D000480B072E000C880B990B0E94DE622B0113
:1034E0003C0120915B0B30915C0B40915D0B509146
:1034F0005E0B0E94D76210915A0B8823A9F040926C
:103500005B0B50925C0B60925D0B70925E0B11E056
:1035100020E030E0A901C301B2010E949E691816A3
:103520000CF010E010935A0B123009F420C1133044
:1035300009F448C1113009F4C0C1888999890197FB
:1035400060E08E3F9F4308F052C1A090470BB090BF
:10355000480B28893989B901330F880B990B0E94D0
:10356000DE621B012C01A114B10409F4F3C1B50101
:1035700088899989681B790B072E000C880B990B99
:103580000E94DE624B015C0120E030E040E251EC41
:103590000E94D76287FDDEC120E030E040E251E4C6
:1035A000C501B4010E949E6918160CF4E7C1809110
:1035B00007038111E8C18091FF0290910003A0915F
:1035C0000103B091020389839A83AB83BC8380910A
:1035D000030390910403A0910503B09106038D832A
:1035E0009E83AF83B887A20191016091F30270912D
:1035F000F4028091F5029091F6020E943D672091BD
:10360000520B3091530B4091540B5091550B0E942B
:103610003D6329813A814B815C810E943D6720EDA9
:103620003CEC4CE45DE30E943D6329813A814B818F
:103630005C810E943E6769837A838B839C8360935D
:10364000FF02709300038093010390930203809123
:103650004E0B90914F0BA091500BB091510B89875D
:103660009A87AB87BC872D813E814F815885C501E4
:10367000B4010E943E67762E672E8C0120E030E078
:10368000A9010E94D76287FD89C129853A854B85AA
:103690005C8560E070E08FE793E40E9438686D839A
:1036A0007D878E879F87272D362DA8010E94D762A0
:1036B00087FF04C07D806D840E851F85872D962D24
:1036C000D8018093030390930403A0930503B09360
:1036D000060320914A0B30914B0B40914C0B5091BB
:1036E0004D0BC501B4010E943D634B015C0180920A
:1036F000F7029092F802A092F902B092FA02272DF6
:10370000362DA80169857A858B859C850E943D634D
:103710009B01AC012093FB023093FC024093FD021D
:103720005093FE02C501B4010E943E6729813A818F
:103730004B815C810E943E6720E030E0A9010E943D
:103740003E674B015C0120E030E0A9010E94D76296
:1037500087FD03C120E030E04FE753E4C501B40129
:103760000E949E6918160CF002C16FE7F7C04090E6
:103770005B0B50905C0B60905D0B70905E0B20E0DB
:1037800030E040E850E4C301B2010E943D679B0174
:10379000AC01C501B4010E949E6987FFA2C00E94CE
:1037A000850D8090560B9090570BA090580BB090C1
:1037B000590B681979098A099B0997FDBECE83E0E8
:1037C00080935A0B4AEB51E16AEC71E180E00E9470
:1037D0000C15A091450BB091460BB98BA88B88892D
:1037E0009989019760E08E3F9F4308F4AECE6093C5
:1037F000490B80913D0B90913E0BA0913F0BB091F6
:10380000400B0097A105B10509F429CEC81AD90AC1
:10381000EA0AFB0AF7FC23CEA889B989BD01BB0FD0
:10382000880B990B0E94DE626B017C0160913B0B5F
:1038300070913C0B072E000C880B990B0E94DE62E6
:103840009B01AC01C701B6010E94D76287FF58C037
:103850004AED51E169EE71E180E061960FB6F894AE
:10386000DEBF0FBECDBFDF91CF911F910F91FF90B3
:10387000EF90DF90CF90BF90AF909F908F907F9010
:103880006F905F904F903F902F900C940C154EE8E6
:103890005FE06BE97FE080E00E940C158091450BB2
:1038A0009091460B998B888BBC01990F880B990BD3
:1038B0000E94DE624B015C0108CE40905B0B509091
:1038C0005C0B60905D0B70905E0BA3019201C501D3
:1038D000B4010E94D76287FD30CE82E080935A0BFC
:1038E0004ECF0E94850D605C73468F4F9F4F609353
:1038F000560B7093570B8093580B9093590B1DCE1A
:103900008091470B9091480B0097D9F0288939890D
:103910002E5F3F4F0497281739079CF430933C0BD8
:1039200020933B0B0E94850D605E714B8F4F9F4F24
:1039300060933D0B70933E0B80933F0B9093400B35
:103940008ECD10923D0B10923E0B10923F0B1092B9
:10395000400B85CD81E08093070360E02092F30265
:103960003092F4024092F5025092F60240CFC50127
:10397000B4010E94AA6875956795F0CF81E08093A5
:1039800007036FE7EBCF109207031D821E821F8291
:10399000188619821A821B821C8225CE712C612CFA
:1039A00000E010E08BCECF92DF92EF92FF926B019E
:1039B0007C0183E3C816D104E104F10470F082E3D2
:1039C000C81AD108E108F10862E370E080E090E0F5
:1039D0000E94520D0E94111AECCFC701B6010E943D
:1039E000520DFF90EF90DF90CF900C94111A8091C0
:1039F0001805882331F062E070E080E090E00C94DC
:103A0000D31C08954F925F926F927F92AF92BF92B4
:103A1000CF92DF92EF92FF920F931F93CF93DF939A
:103A20001092F7041092F6042FE320933A051092B7
:103A30003905109238051092080510920905109268
:103A40000A0510920B059C01E90198812F5F3F4FF9
:103A50009032D1F39E34C9F4898190ED980F9A3059
:103A600020F08D3211F08B3281F422969E012F5F6F
:103A70003F4F888180538A3008F46EC09E012F5FCB
:103A80003F4F8881803209F469C0D093ED09C0931B
:103A9000EC097E012FEFE21AF20A18816AE270E067
:103AA000C7010E944B6A009731F0FC013197808179
:103AB0008032E1F311821D3421F0143511F01734F6
:103AC000E1F5F70180819FEFE91AF90A8032C9F325
:103AD00080538A3090F510933A0590E080E06AE0D8
:103AE000AF014F5F5F4F689F9001699F300D1124B8
:103AF000C901C0972081820F911D27FD9A95FA0177
:103B0000208120532A3060F3909339058093380543
:103B1000DF0131962C912032D9F31D3459F58E31C5
:103B2000910539F0E8F48731910519F08C31910550
:103B300009F5B093F704A093F604DF91CF911F919C
:103B40000F91FF90EF90DF90CF90BF90AF907F905C
:103B50006F905F904F900895E90188CFE9018ECF73
:103B60008537910538F08737910518F3803AE3E0FF
:103B70009E07F9F240E050E0BA0130E020E0C12CAD
:103B8000D12C7601C394FD0131960C91002309F4E8
:103B90008CC00132F1F41D34E1F480329105C9F496
:103BA000409308055093090560930A0570930B052F
:103BB000F093F704E093F60463E270E0CF010E9413
:103BC0004B6A009709F4B9CFFC011082B6CFDF0130
:103BD000DACF01540A3108F063C0DF01BD90D0E2B2
:103BE000AD2EBA1499F0A0EDAB0DAA3008F1AEE2FB
:103BF000BA120EC0A181A053AA30D0F02115310510
:103C000019F49F0121503109B12C16C0FD01E5CFF7
:103C1000ADE2AA2EBA1419F0ABE2BA12EFCFA1812D
:103C2000B0EDBA0FBA3020F0AE3241F7A281E3CF47
:103C3000BE2EBC1A309741F3A02FB0E02601370109
:103C400004C0440C551C661C771C0A95D2F7442905
:103C5000552966297729A65ABD4FBC92A081A15447
:103C6000AA3108F4B4CFDF010191002309F48BCF0E
:103C7000D0EDBD2EB00ED9E0AD2EAB14A0F7D3ED34
:103C8000BD2EB00EAA24A394AB1468F70B3259F3DF
:103C9000FD0131960C91003209F075CFDF01F8CFAC
:103CA00021153105D9F69D01D9CF3093F704209322
:103CB000F604409308055093090560930A05709334
:103CC0000B053BCF8091200590912105009731F0A5
:103CD0004AE050E070E060E00C94326060E070E038
:103CE000CB0108950E94621ECB0108950E94621EBE
:103CF00097FD0CC00E94621E6F3F71058105910502
:103D000009F034F40E94621E862F089580E0089521
:103D10008FEF08950E94DB1181110C94761E80E0D4
:103D20000895CF9384E50E94DB11C0E08823D9F089
:103D30000E94761EC82F1816B4F40E9441158DE417
:103D40000E94051280913805909139050E948F12CA
:103D50006C2FCC0F770B82ED94E00E947D148AE0EB
:103D60000E940512CFEF8C2FCF91089580912005EE
:103D700090912105892B41F00E94761E91E08111DE
:103D800001C090E0892F089591E0FCCFCF93DF939D
:103D9000C82FD62F0E94DB11882321F0DF91CF910D
:103DA0000C94B61E8C2F0E948D11811101C08D2F95
:103DB000DF91CF9108950F931F93CF9380912005AA
:103DC000909121050097E9F0FC018F01C1912C2F02
:103DD0002F7D81F0C53411F0C536B9F7F801108296
:103DE00070E060E00E94D45EF801C083CF911F9123
:103DF0000F91089570E060E0CF911F910F910C94A6
:103E0000D45E60E070E0CB01F1CFCF9383E50E94F8
:103E1000DB11882331F00E94721E90930702809379
:103E2000060282E40E94DB11882331F00E94721E98
:103E3000909305028093040286E40E948D118823EA
:103E4000B9F00E94DB1E6093000270930102809320
:103E5000020290930302C1E020E030E0A9010E9439
:103E6000D762811101C0C0E0C0930205CF910895CF
:103E700060E070E0CB01E7CF8F929F92AF92BF924C
:103E8000CF92DF92EF92FF920F931F93CF9386E230
:103E9000E82E85E0F82E0EEE19E09EEFC92E99E08F
:103EA000D92EC0E088E58C0F0E94DB11882309F42D
:103EB0007CC00E94DB1E4B015C018C2F0E947311A1
:103EC000882309F468C0F80120813181428153813F
:103ED000C501B4010E943E67F7016083718382834C
:103EE0009383CF5FF4E0EF0EF11C0C5F1F4F84E073
:103EF000C80ED11CC330B1F685E40E94DB118823C3
:103F000009F45EC00E94DB1E6B017C0183E00E940D
:103F10007311882371F02091FA093091FB094091C7
:103F2000FC095091FD09C701B6010E943E676B0173
:103F30007C01C0923205D0923305E0923405F092B4
:103F4000350586E40E94DB118823C9F00E94DB1E40
:103F500020E030E0A9010E949E69181684F40E94B6
:103F6000DB1E20E030E040E752E40E9438686093B6
:103F70003502709336028093370290933802CF91C6
:103F80001F910F91FF90EF90DF90CF90BF90AF9077
:103F90009F908F900895F601208131814281538155
:103FA000C501B4010E943D6797CFF80180819181DE
:103FB000A281B381F70180839183A283B38391CFE0
:103FC0008091FA099091FB09A091FC09B091FD093B
:103FD0008093320590933305A0933405B093350553
:103FE000B0CF2F923F924F925F926F927F928F92BB
:103FF0009F92AF92BF92CF92DF92EF92FF920F9378
:104000001F93CF93DF9300D000D0CDB7DEB7809160
:104010005903843008F063C111E601E0809159032F
:10402000843008F05CC18091520A9091530A891B38
:104030008F7709F454C10E94671797FF0BC00E9445
:10404000DF148CE694E00E943A138091520A809328
:10405000530AE4CF8A3019F08D3009F003C1109271
:104060003A0B8091D80A9091D90AFC01EC52F54F95
:104070001682892B19F40E94111AD0CF1092D90AF6
:104080001092D80A2AED3AE03D832C83EC81FD8121
:104090008191803209F44CC08E3409F06FC067E61C
:1040A00074E08C819D810E948D627C01892B49F096
:1040B0006EE470E08C819D8104960E944B6A0097AB
:1040C00011F48C819D814AE050E070E060E001963F
:1040D0000E9432604B015C018091D40A9091D50A14
:1040E000A091D60AB091D70A0196A11DB11D8816DC
:1040F0009906AA06BB0629F060E084E394E0EF2865
:1041000071F16AE270E08C819D810E945D6A9C0180
:10411000009741F1982F4C81941BF12C992359F071
:104120009150EC81FD81E90FF11D8081F826F6CFD9
:10413000FD83EC83ABCF4AE050E070E060E0C90162
:1041400001960E943260CF2CD12CF12CE12C6C1501
:104150007D058E059F0551F060E085E194E00E94A9
:104160007B175CCF60E08BEE93E0F9CF8092D40AAE
:104170009092D50AA092D60AB092D70A80913605BD
:104180008130C1F067E470E08C819D810E944B6AB0
:10419000009781F04AE050E070E060E001960E94F4
:1041A0003260643071058105910520F484E793E065
:1041B0000E943A13EC81FD8180818D34E9F4838182
:1041C000823309F441C0883369F08033A9F4EC816B
:1041D000FD818181843381F48281813369F40E947D
:1041E0002F3A0AC0EC81FD818281803329F48181DC
:1041F000813311F4109218028091DA0A8B3309F49A
:104200000DCF80915903843008F008CF80915B0373
:10421000819FC00111246AED7AE0845A9C4F0E946C
:10422000566A80915B03189FF0011124E454FC4FFF
:1042300010828F5F843098F480935B0380915903E0
:104240008F5F80935903EACEEC81FD8182818133B7
:1042500099F68181813381F681E00E94E314109206
:104260005B03ECCF90913A0B913009F4D7CE9430A8
:10427000B0F0945090933A0B8830C9F48091D80AEA
:104280009091D90A009709F4C9CE01979093D90A61
:104290008093D80A8C52954FFC011682BFCE8C3584
:1042A000C9F49C5F90933A0B943009F4B7CE2091F7
:1042B000D80A3091D90AA9014F5F5F4F5093D90AAC
:1042C0004093D80A2C52354FF90186834F3551055A
:1042D0001CF4A4CE8B3381F600933A0B9FCE0E9440
:1042E000850D6B017C018091F8049091F904A091F7
:1042F000FA04B091FB040097A105B10559F1409172
:104300002205509123056091240570912505840FA5
:10431000951FA61FB71F97018601081B190B2A0BB3
:104320003B0BD901C801B7FD15C00E94DF140091F5
:10433000EC091091ED091D830C8387E393E00E9443
:104340003A138C819D810E942E138AE00E940512EF
:1043500080E083CF8090130290901402A090150209
:10436000B090160281149104A104B10479F09091E7
:10437000620B8091630B981709F4D7C0C092220595
:10438000D0922305E0922405F092250580915102F8
:1043900090915202A0915302B0915402A70196014C
:1043A000281B390B4A0B5B0BDA01C901B7FD47C269
:1043B0009091620B8091630B981709F4F0C0E09123
:1043C000630B37E4E39FF0011124E054FA4F0081BE
:1043D00009830E94850D0981202F30E0E3E0F8E198
:1043E0004491EDEBF7E18491882399F090E0880FF8
:1043F000991FFC01E35EFC4FA591B491FC01E656C8
:10440000F84E859194918FB7F894EC91E42BEC934E
:104410008FBF19811111C7C080E00E94870C809165
:104420000205882309F4FEC10091060210910702DB
:10443000C80102972091470B3091480B2817390784
:104440000CF4F0C13090630B212C19821A821B826C
:104450008091620B831509F46BC1832D90E027E4F2
:10446000289FF001299FF00D1124E658FA4F458945
:1044700056896789708D452B462B472B89F4418DD2
:10448000528D638D748D452B462B472B49F4458DFA
:10449000568D678D70A1452B462B472B09F440C0E4
:1044A000E7E4E89FA001E99F500D112446585A4FB8
:1044B0005D834C83FA0161817281838194810E94C2
:1044C000EC694B015C01EC81FD8161A172A183A1CA
:1044D00094A10E94DC622B013C01EC81FD8165A16D
:1044E00076A187A190A50E94DC629B01AC01C3016B
:1044F000B2010E943868A50194010E943D635B01EE
:104500008E839C83222D39814A815B810E949E6922
:10451000181634F42A2CB982FE81FA832C812B835D
:104520003394332D3F70332E93CF0E94850DAB0112
:10453000BC018091220590912305A0912405B091A2
:104540002505880D991DAA1DBB1D481B590B6A0B1B
:104550007B0B77FF03C01092550218CF8091550254
:10456000811114CF81E0809355025F9A8091FC0401
:104570008E7F8093FC048A9A8091FC048D7F8093C7
:10458000FC048091080180958170809306018091E0
:10459000FC048B7F8093FC040E94E811F7CE1091FD
:1045A0006605198316CF2F3F310511F481E035CF11
:1045B000E9E4F8E1E491E150E23108F0B4C0F0E060
:1045C0008827EA51FD4D8F4F0C942367F822FE2275
:1045D00004230E231823932322232B2334233E2347
:1045E0004823522361236B23932375237F2389233D
:1045F00084B5806884BD098107BD11CF84B5806210
:1046000084BD198118BD0BCF809180008068809394
:104610008000309389002093880001CF8091800032
:1046200080628093800030938B0020938A00F7CEC5
:104630008091800088608093800030938D0020936B
:104640008C00EDCE8091B00080688093B00009812D
:104650000093B300E4CE8091B00080628093B000FC
:1046600019811093B400DBCE809190008068809314
:1046700090003093990020939800D1CE80919000C3
:1046800080628093900030939B0020939A00C7CE65
:104690008091900088608093900030939D002093DB
:1046A0009C00BDCE8091A00080688093A000809186
:1046B000A0008F7B8093A0003093A9002093A800D6
:1046C000AECE8091A00080628093A0003093AB00BA
:1046D0002093AA00A4CE8091A00088608093A000BF
:1046E0003093AD002093AC009ACE80912001806879
:1046F00080932001309329012093280190CE80914E
:10470000200180628093200130932B0120932A01A5
:1047100086CE8091200188608093200130932D0106
:1047200020932C017CCE203831050CF03FCF74CE85
:10473000B801110F880B990B0E94DE628B018E83EA
:104740009C8320910002309101024091020250911D
:104750000302622D79818A819B810E943D639801C9
:104760004E815C810E943E673B014C01A090040297
:10477000B09005029B01AC01B8018E819C810E9422
:104780009E691816A4F0B501BB0C880B990B0E940A
:10479000DE628B018E839C839B01AC01B301C4015B
:1047A0000E949E6918161CF083018E829C82809064
:1047B0004D0290904E02A0904F02B090500298018E
:1047C0004E815C81C501B4010E949E691816C4F433
:1047D00028E431EE4AE75FE3C501B4010E943D637E
:1047E00020E037ED43EA5CE30E943E679B01AC01A9
:1047F000B8018E819C810E943D638B018E839C83D6
:10480000C801AE81BC8180934D0290934E02A0936B
:104810004F02B0935002B801CD010E94AA68CB01AB
:104820000E94230E44E6C40ED11CE11CF11CC09270
:104830005102D0925202E0925302F09254020E942E
:10484000111A80913605882309F49AC00E94850DBB
:104850006B017C010091170209830023F1F0809124
:104860003B058823D1F04091560250915702609148
:1048700058027091590297018601041B150B260BF3
:10488000370BB901A80177FD1BC0833009F473C051
:104890000CF062C081300CF067C01981212F30E02C
:1048A000A8EEB3E00E94E166C60ED71EE81EF91E10
:1048B000C0925602D0925702E0925802F0925902EA
:1048C00080910105882309F45BC00E94850D6B016E
:1048D0007C018091FD049091FE04A091FF04B091B1
:1048E0000005A7019601281B390B4A0B5B0BDA0167
:1048F000C901B7FD45C02091010530E0A8EEB3E045
:104900000E94E166C60ED71EE81EF91EC092FD0485
:10491000D092FE04E092FF04F092000580E00E9435
:1049200087148AE026960FB6F894DEBF0FBECDBF7F
:10493000DF91CF911F910F91FF90EF90DF90CF907B
:10494000BF90AF909F908F907F906F905F904F90AF
:104950003F902F900C940512843009F09ECF0E9456
:10496000411584E894E004C00E94411583EB94E073
:104970000E943A1392CF0E9441158CE994E0F8CF3F
:1049800026960FB6F894DEBF0FBECDBFDF91CF9154
:104990001F910F91FF90EF90DF90CF90BF90AF905D
:1049A0009F908F907F906F905F904F903F902F904F
:1049B00008952F923F924F925F926F927F928F92C3
:1049C0009F92AF92BF92CF92DF92EF92FF920F939E
:1049D0001F93CF93DF93CDB7DEB7C557D1090FB67D
:1049E000F894DEBF0FBECDBF4B015A0169016F962F
:1049F000FFAEEEAE6F9720911E0A30911F0A4091D4
:104A0000200A5091210ADC016D917D918D919C913C
:104A10000E943D630E94AB69AD966CAF7DAF8EAFD7
:104A20009FAFAD972091220A3091230A4091240A2A
:104A30005091250AF40160817181828193810E94E5
:104A40003D630E94AB69E1966CAF7DAF8EAF9FAFC7
:104A5000E1972091260A3091270A4091280A509127
:104A6000290AD5016D917D918D919C910E943D63A4
:104A70000E94AB69E5966CAF7DAF8EAF9FAFE597B7
:104A800020912A0A30912B0A40912C0A50912D0A2C
:104A9000F60160817181828193810E943D630E9451
:104AA000AB69A5966CAF7DAF8EAF9FAFA597809198
:104AB000EA0983FF0EC0A5962CAD3DAD4EAD5FADAE
:104AC000A5972093740B3093750B4093760B5093FE
:104AD000770BD8013C9011962C9011971296BC91AF
:104AE000BFAFF801F3812C96FFAF2C978091620B3A
:104AF0009091630B891B80958F7019F40E94F11FB0
:104B0000F5CF2091620BE6962FAFE6970091620BEE
:104B10008091780590917905892B11F00C94593486
:104B20008091680B9091690BA0916A0BB0916B0B0F
:104B3000AD962CAD3DAD4EAD5FADAD97281B390B9D
:104B40004A0B5B0B2BAB3CAB4DAB5EAB80916C0B64
:104B500090916D0BA0916E0BB0916F0BE1968CACA8
:104B60009DACAEACBFACE197881A990AAA0ABB0A01
:104B70008091700B9091710BA091720BB091730B9F
:104B8000E5962CAD3DAD4EAD5FADE597281B390BDD
:104B90004A0B5B0B2FAB38AF49AF5AAF8091740B08
:104BA0009091750BA091760BB091770BA596CCAC3C
:104BB000DDACEEACFFACA597C81AD90AEA0AFB0A2D
:104BC00009F46DC080917705811123C080913D0269
:104BD00090913E0201972091450B3091460B28178A
:104BE0003907BCF4A5968CAD9DADAEADBFADA59714
:104BF0008093740B9093750BA093760BB093770B07
:104C00000E94411581E497E10E943A13C12CD12CF6
:104C10007601C701B6010E94DE622091390230910F
:104C20003A0240913B0250913C020E943D632B01AD
:104C30003C0120E030E0A9010E949E6987FF04C08A
:104C400077FA709477F8709420E030E048E453E409
:104C500060912A0A70912B0A80912C0A90912D0A5A
:104C60000E943D63A30192010E94D76287FF17C093
:104C7000A5962CAD3DAD4EAD5FADA5972093740BC1
:104C80003093750B4093760B5093770B0E94411530
:104C900082E297E10E943A13C12CD12C76018BA9B4
:104CA0009CA9ADA9BEA98827B7FD83959927AA27F6
:104CB000BB27182FB7FC12608FA998ADA9ADBAAD6C
:104CC000B7FD1460F7FC1860C701B6010E94DE62F0
:104CD0002091390230913A0240913B0250913C02BE
:104CE0000E943D636B017C0120E030E0A9010E943D
:104CF0009E6987FF1EC1C701B6019058A02FB0E082
:104D0000BCAFABAFB7E40B9F90011124F901E6589B
:104D1000FA4F6196FFAFEEAF619720E030E040E0E0
:104D20005FE30E943E670E94B16869966CAF7DAFF9
:104D30008EAF9FAF69976196AEADBFAD61971C9284
:104D4000D5961C932FA938AD49AD5AAD27962CAFF7
:104D50003DAF4EAF5FAF279757FF0DC050954095C1
:104D6000309521953F4F4F4F5F4F27962CAF3DAF6A
:104D70004EAF5FAF27972B968CAE9DAEAEAEBFAE5B
:104D80002B97B7FE0DC088279927DC018819990950
:104D9000AA09BB092B968CAF9DAFAEAFBFAF2B97C7
:104DA0004BA85CA86DA87EA877FE08C0709460949C
:104DB00050944094411C511C611C711C6196AEAD15
:104DC000BFAD619755964D925D926D927C925897CA
:104DD0002B962CAD3DAD4EAD5FAD2B9759962D93D7
:104DE0003D934D935C935C9727962CAD3DAD4EADB6
:104DF0005FAD27975D962D933D934D935C93909770
:104E00006BA97CA98DA99EA90E94DE6220916705ED
:104E1000309168054091690550916A050E943D6393
:104E20006D966CAF7DAF8EAF9FAF6D9769A37AA380
:104E30008BA39CA3C501B4010E94DE6220916B0587
:104E400030916C0540916D0550916E050E943D6357
:104E500065966CAF7DAF8EAF9FAF65976DA37EA358
:104E60008FA398A76FA978AD89AD9AAD0E94DE6235
:104E700020916F0530917005409171055091720538
:104E80000E943D634B015C0189A69AA6ABA6BCA615
:104E90002091730530917405409175055091760508
:104EA000C701B6010E943D636B017C01CDA6DEA661
:104EB000EFA6F8AAB6E04B16510461047104E4F5BC
:104EC0002B962CAD3DAD4EAD5FAD2B972630310509
:104ED000410551058CF527968CAD9DADAEADBFADAE
:104EE00027970697A105B1053CF520E030E0A90120
:104EF000C701B6010E949E6987FF04C0F7FAF094CB
:104F0000F7F8F09487E4ABADBCAD8A9F80018B9F2E
:104F1000100D112406581A4F20E030E0A901C701F6
:104F2000B6010E943E67F801658776878787908B78
:104F300023C0C701B601E2CE6F96AEADBFAD6F978D
:104F4000CD90DD90ED90FC9020E030E0A901C7010C
:104F5000B6010E94D762882309F4C5C287E42BAD4D
:104F60003CAD829FF001839FF00D1124E658FA4F6B
:104F7000C586D686E786F08A87E4ABADBCAD8A9F4E
:104F8000F0018B9FF00D1124E658FA4F69962CAD75
:104F90003DAD4EAD5FAD699721A332A343A354A3AA
:104FA00027968CAD9DADAEADBFAD27972B962CADA2
:104FB0003DAD4EAD5FAD2B9782179307A407B507A4
:104FC00010F4DA01C90184159505A605B70510F49A
:104FD000D301C20169962CAD3DAD4EAD5FAD699771
:104FE00082179307A407B50710F4DA01C90127E473
:104FF0004BAD5CAD249FF001259FF00D1124E658C8
:10500000FA4F85A396A3A7A3B0A70697A105B1055C
:1050100010F40C943C34EA5BFF4F8091660580836A
:105020008BA99CA9ADA9BEA9892B8A2B8B2B09F032
:105030005F9887E4ABADBCAD8A9FF0018B9FF00D0C
:105040001124E658FA4F818D928DA38DB48D892B52
:105050008A2B8B2B09F08A9887E42BAD3CAD829F7D
:10506000F001839FF00D1124E658FA4F858D968D3F
:10507000A78DB0A1892B8A2B8B2B29F08091080159
:1050800081708093060169968CAD9DADAEADBFADCC
:105090006997892B8A2B8B2B11F40C945B348091AC
:1050A0006505882319F0815080936505129880E288
:1050B00080936505E0904A0AF0904B0A00914C0AF3
:1050C00010914D0A9701A801632D722D8FAD2C967A
:1050D0009FAD2C970E94D76287FD06C0E32CF22C6F
:1050E0000FAD2C961FAD2C9787E4ABADBCAD8A9F5E
:1050F000F0018B9FF00D1124E658FA4F85849684B9
:10510000A784B088A501940160E070E080E89FE387
:105110000E9438682B966CAF7DAF8EAF9FAF2B97F8
:105120009701A8010E943D636B017C018091620B95
:105130009091600B891B8F706A968FAF6A97A70159
:10514000960160E074E284E799E40E9438680E9466
:10515000AB692B013C016A968FAD6A97825086300D
:10516000A0F560911A0A70911B0A80911C0A909117
:105170001D0A641975098609970916161706180677
:1051800019061CF5660F771F881F991F6A96BFAD19
:105190006A972B2F30E050E040E00E940467CA017C
:1051A000B9010E94DE620E94AA68640D751D861D09
:1051B000971D0E94DE629B01AC0160E074E284E70F
:1051C00099E40E9438686B017C01A7019601C50132
:1051D000B4010E943D639B01AC010E943D63659652
:1051E0006CAF7DAF8EAF9FAF659787E4EBADFCAD45
:1051F0008E9F80018F9F100D112406581A4F6596BF
:105200002CAD3DAD4EAD5FAD6597D80111962D9398
:105210003D934D935C93149795964D905D906D9052
:105220007C909897C301B2010E94DC6227966CAF14
:105230007DAF8EAF9FAF27979B01AC01C701B60131
:105240000E943D630E941C680E94B168A1966CAFE9
:105250007DAF8EAF9FAFA197F80166AB77AB80AF04
:1052600091AF9E012F5D3F4F21963FAF2EAF21970B
:105270004EE25AE0A7965FAF4EAFA797CE018D964C
:105280009AAB89AB212C312C90E89BABAFE3AFAB51
:105290002196EEADFFAD2197219131914191519130
:1052A0002196FFAFEEAF2197C701B6010E943D6383
:1052B0004B015C0120E030E0A9010E949E6987FF5C
:1052C00004C0B7FAB094B7F8B094A796AEADBFAD2E
:1052D000A7972D913D914D915D91A796BFAFAEAF30
:1052E000A7972F962CAF3DAF4EAF5FAF2F97A5017D
:1052F00094012F966CAD7DAD8EAD9FAD2F970E9422
:10530000D76287FF16C0A50194012F966CAD7DADC5
:105310008EAD9FAD2F970E9438685B018C01910183
:105320004BA95FA90E94D76287FF03C015010BAB91
:105330001FABE9A9FAA921962EAD3FAD2197E2173F
:10534000F30709F0A5CF8DA59EA5AFA5B8A92F9607
:105350008CAF9DAFAEAFBFAF2F979C01AD01C70122
:10536000B6010E943D636B017C0120E030E0A901A1
:105370000E949E6987FF04C0F7FAF094F7F8F09452
:1053800080903A0A90903B0AA0903C0AB0903D0A67
:10539000A7019601C501B4010E94D76287FF12C020
:1053A000A7019601C501B4010E9438687B018C01F8
:1053B00091014BA95FA90E94D76287FF03C0170123
:1053C0000BAB1FAB20E030E040E85FE3B1018BA9FD
:1053D0009FA90E94D76287FF35C087E4ABADBCAD03
:1053E0008A9F80018B9F100D112406581A4FA19699
:1053F0006CAD7DAD8EAD9FADA1970E94DC62910139
:105400004BA95FA90E943D630E94B168F80166AB99
:1054100077AB80AF91AF91014BA95FA9B1018BA987
:105420009FA90E943D6365962CAD3DAD4EAD5FAD2D
:1054300065970E943D63D80111966D937D938D937E
:105440009C93149727962CAD3DAD4EAD5FAD27973D
:105450002B966CAD7DAD8EAD9FAD2B970E943D63BD
:1054600065966CAF7DAF8EAF9FAF659787E42BAD30
:105470003CAD829FF001839FF00D1124E658FA4F56
:1054800085889688A788B08C81149104A104B10402
:1054900009F060C0818D928DA38DB48D892B8A2BEC
:1054A0008B2B09F057C0858D968DA78DB0A1892BC8
:1054B0008A2B8B2B09F04EC02091420A3091430A6F
:1054C0004091440A5091450A65966CAD7DAD8EAD14
:1054D0009FAD65970E943D630E941C680E94B16861
:1054E0006B017C0147C16D962CAD3DAD4EAD5FADFE
:1054F0006D97CA01B9010E943D636B017C016596FD
:105500002CAD3DAD4EAD5FAD6597CA01B9010E94AE
:105510003D639B01AC01C701B6010E943E676B0170
:105520007C01A5019401C501B4010E943D639B016A
:10553000AC01C701B6010E943E670E94EC6927E4F6
:105540004BAD5CAD249FF001259FF00D1124E65872
:10555000FA4FEACC69968CAD9DADAEADBFAD699703
:10556000892B8A2B8B2B09F49AC620913E0A309105
:105570003F0A4091400A5091410A65966CAD7DAD5D
:105580008EAD9FAD65970E943D630E941C680E948E
:10559000B1686B017C018091610590916205A091D9
:1055A0006305B09164056196EEADFFAD6197218D05
:1055B000328D438D548D2BAB3CAB4DAB5EAB258D0B
:1055C000368D478D50A12FAB38AF49AF5AAF21A1CF
:1055D00032A143A154A123962CAF3DAF4EAF5FAF94
:1055E000239784159505A605B70508F461C68114AF
:1055F0009104A104B10481F16091510570915205AB
:1056000080915305909154056C157D058E059F057D
:1056100018F5A30192010E94A46627966CAF7DAF96
:105620008EAF9FAF2797A5019401C701B6010E94D5
:10563000A46627962CAD3DAD4EAD5FAD27972617DE
:1056400037074807590740F4CA01B901A501940179
:105650000E94B46669017A018BA99CA9ADA9BEA973
:10566000892B8A2B8B2B31F1609155057091560552
:1056700080915705909158056C157D058E059F0505
:10568000C8F4A30192010E94A4664B015C012BA9FE
:105690003CA94DA95EA9C701B6010E94A466861661
:1056A0009706A806B90630F4C501B4010E94B46695
:1056B00069017A012FA938AD49AD5AAD232B242BAE
:1056C000252B31F16091590570915A0580915B0548
:1056D00090915C056C157D058E059F05C8F4A301AE
:1056E00092010E94A4664B015C012FA938AD49AD1F
:1056F0005AADC701B6010E94A46686169706A80691
:10570000B90630F4C501B4010E94B46669017A019A
:1057100023968CAD9DADAEADBFAD2397892B8A2B63
:105720008B2B41F160915D0570915E0580915F0565
:10573000909160056C157D058E059F05D8F4A30139
:1057400092010E94A4664B015C0123962CAD3DADF5
:105750004EAD5FAD2397C701B6010E94A4668616C1
:105760009706A806B90630F4C501B4010E94B466D4
:1057700069017A0187E44BAD5CAD849F8001859F10
:10578000100D112406581A4FF801EE5BFF4FC0822E
:10579000D182E282F382C701B6010E94DC626B0112
:1057A0007C0165962CAD3DAD4EAD5FAD65970E9419
:1057B0003868D80151966D937D938D939C9354973F
:1057C0002DEB37E346E051E4C701B6010E943D638B
:1057D0000E94B168F80161AB72AB83AB94ABC9A016
:1057E000DAA0EBA0FCA0C98ADA8AEB8AFC8A2DA198
:1057F0003EA14FA158A52BAB3CAB4DAB5EAB2D8B67
:105800003E8B4F8B588F89A59AA5ABA5BCA58FABB6
:1058100098AFA9AFBAAF898F9A8FAB8FBC8F2F96F5
:105820002CAD3DAD4EAD5FAD2F972D8F3E8F4F8F81
:1058300058A369968CAD9DADAEADBFAD6997892B70
:105840008A2B8B2B09F43FC68E010F5E1F4F1E0162
:1058500091E2290E311C812C912C5401D8014D90DC
:105860005D906D907D908D0120E030E0A901C30135
:10587000B2010E94D762882371F0A3019201C30193
:10588000B2010E943D639B01AC01C501B4010E94BD
:105890003E674B015C012016310601F7C501B401DA
:1058A0000E94EC699B01AC0160E070E080E89FE33E
:1058B0000E9438684B015C01AC019B01C701B60135
:1058C0000E943D63698B7A8B8B8B9C8BA501940125
:1058D0006BA97CA98DA99EA90E943D636D8B7E8BCF
:1058E0008F8B988FA50194016FA978AD89AD9AAD82
:1058F0000E943D63698F7A8F8B8F9C8FA5019401E5
:105900002F966CAD7DAD8EAD9FAD2F970E943D6300
:105910006D8F7E8F8F8F98A36A96BFAD6A97BB23DA
:1059200009F41DC6E091640BEBABF091650BFFAB86
:105930002091660B66962FAF66973091670B28967D
:105940003FAF28972DEB37E346E855E3BF01669656
:105950008FAD669728969FAD28970E94D76287FDE6
:10596000FEC58090410590904205A0904305B090FF
:105970004405C988DA88EB88FC88809145059091B8
:105980004605A0914705B091480523968CAF9DAF81
:10599000AEAFBFAF23972D893E894F89588D2F9683
:1059A0002CAF3DAF4EAF5FAF2F97809149059091DF
:1059B0004A05A0914B05B0914C056D968CAF9DAFFB
:1059C000AEAFBFAF6D97298D3A8D4B8D5C8D6596CF
:1059D0002CAF3DAF4EAF5FAF659780914D05909175
:1059E0004E05A0914F05B0915005A1968CAF9DAF8B
:1059F000AEAFBFAFA1972D8D3E8D4F8D58A1A9960B
:105A00002CAF3DAF4EAF5FAFA997C501B401905821
:105A1000A70196010E943D632B013C0123966CADCA
:105A20007DAD8EAD9FAD239790582F962CAD3DAD9B
:105A30004EAD5FAD2F970E943D639B01AC01C3014A
:105A4000B2010E943E672B013C016D966CAD7DADAD
:105A50008EAD9FAD6D97905865962CAD3DAD4EAD1A
:105A60005FAD65970E943D639B01AC01C301B2012C
:105A70000E943E672B013C01A1966CAD7DAD8EADC1
:105A80009FADA1979058A9962CAD3DAD4EAD5FADA1
:105A9000A9970E943D639B01AC01C301B2010E9422
:105AA0003E6727966CAF7DAF8EAF9FAF27972FEEE7
:105AB0003FEF4FE75FE30E949E6918160CF448C55C
:105AC0002FEE3FEF4FE75FEB27966CAD7DAD8EADD0
:105AD0009FAD27970E94D76287FF0AC08FEE9FEF86
