:100000000C941D1B0C944E1B0C944E1B0C944E1BFD
:100010000C944E1B0C944E1B0C944E1B0C944E1BBC
:100020000C944E1B0C944E1B0C944E1B0C944E1BAC
:100030000C944E1B0C94FAFF0C944E1B0C944E1B0C
:100040000C944E1B0C948EA80C944E1B0C944E1BBF
:100050000C944E1B0C944E1B0C944AA10C94B0FFB4
:100060000C944E1B0C94415B0C94375B0C944E1B10
:100070000C944E1B0C944E1B0C944E1B0C944E1B5C
:100080000C944E1B0C944E1B0C944E1B0C944E1B4C
:100090000C944E1B0C944E1B0C944E1B0C944E1B3C
:1000A0000C944E1B0C944E1B0C944E1B0C944E1B2C
:1000B0000C944E1B0C944E1B0C944E1B0C944E1B1C
:1000C0000C944E1B0C944E1B0C944E1B0C944E1B0C
:1000D0000C944E1B0C944E1B0C944E1B0C944E1BFC
:1000E0000C944E1B084AD73B3BCE016E84BCBFFD2F
:1000F000C12F3D6C74319ABD56833DDA3D00C77FF8
:1001000011BED9E4BB4C3E916BAAAABE0000008090
:100110003F05A84CCDB2D44EB93836A9020C50B91F
:10012000918688083CA6AAAA2ABE000000803F004B
:100130000C94EC3B0C9452950C942CFD0C9422FDE9
:100140000C94EAD40C9455410C94689A0C94D942BE
:100150000C9417980C9423980C9472E00C949BE0E8
:100160000C942B260C94089D0C946A3C0C9436FD40
:100170000C945E500C9464500C94F6210C947158BD
:100180000C94129B0C94F5FC0C9458500C94054F55
:100190000C94DBCD0C9464210C94B4F60C94519225
:1001A0000C94A4FC0C945C950C94291C0C94419424
:1001B0000C946EE00C9476E00C94C5F60C94BDFCA7
:1001C0000C948DD10C94A6530C94E2CB0C9479E052
:1001D0000C9457940C94723A0C946AE00C945A99CB
:1001E0000C94AD3D0C94A9200C9449210C949CFCDA
:1001F0000C94501B0C942AC70C943D210C949192A2
:100200000C943B210C94A9500C9456930C94A9E0A7
:100210000C9489E00C94FFE00C94AD200C941D9894
:100220000C949FE00C94AEF60C9441910C94A5E0D4
:100230000C9441210C94673C0C9443D60C9404FD1F
:100240000C948DE00C94019E0C942E200C94244F61
:100250000C9483E00C946D320C942C980C940D3C0F
:100260000C9458930C94AF920C94B61B0C94F19D83
:100270000C943B940C94A9FC0C94592C0C9466950A
:100280000C9457950C940A1D0C94A5200C949D1B5E
:100290000C9485950C94EA1B0C94F01F0C9491E03F
:1002A0000C94079B0C94059E0C946E500C94D19B5F
:1002B0000C9496BA0C94191D0C94FED80C94CFFC97
:1002C0000C94BDF60C947F920C940D980C94C22063
:1002D0000C9447940C948A1B0C94CAF60C94EBFC77
:1002E0000C94BAF60C94323B0C943F210C94771B7F
:1002F0000C9400E10C94153C0C94D11B0C94BA4660
:100300000C944C500C9418FD0C94514C0C94A392EA
:100310000C94434F0C94FD9D0C9497E00C94F99D24
:100320000C9481200C943A200C9434500C947492C8
:100330000C94E8930C94B3FC0C9408980C94EC3A4D
:100340000C94FF9A0C9432980C94D2E00C94C13423
:100350000C946A530C94C0D00D9435160C94D7CFDE
:100360000C94D53A0C942F940C94FD1B0C9435945A
:100370000C94F0500C94691B0C94F59D0C94A621E0
:100380000C94C0F60C94A3F60D9461160C944721BE
:100390000C94161C0C94709C0C9446500C944321A5
:1003A0000C941D930C948F3F0C94A93A0C946B9A67
:1003B0000C94C7F60C9417930C94ED9D0C947FE06D
:1003C0000C9452940C9429930C94AC9A0C94A44AD7
:1003D0000D9483010C94ABA10C94A4E00C940EFD3D
:1003E0000C9464E00C94F8930C9452500C94B1F675
:1003F0000C943A500C94DD500C94E99D0C94853C7F
:100400000C9479320C94C7FC0C94E59D0C94619586
:100410000C94C3950C94B5210C94802D0C941C1D48
:100420000C9445390C9427D30C94E1FC0C94405067
:100430000C94D7FC0C94B7F60C94659A0C944994E0
:100440000C9412980C9490490C940E450C942E50D8
:100450000C94A4950C9400940C94883A0C94452127
:100460004E414E494E495459494E46CDCCCC3D0A99
:10047000D7233C17B7D13877CC2B329595E6241F7C
:10048000B14F0A000020410000C84200401C462035
:10049000BCBE4CCA1B0E5AAEC59D7400407A10F308
:1004A0005A00A0724E18090010A5D4E80000E876A2
:1004B00048170000E40B54020000CA9A3B000000F9
:1004C000E1F505000080969800000040420F000012
:1004D00000A08601000000102700000000E80300D3
:1004E0000000006400000000000A0000000000019D
:1004F00000000000002C76D888DC674F0823DFC19D
:10050000DFAE59E1B1B796E5E3E453C63AE6519957
:100510007696E8E6C28426EB898C9B62ED407C6F80
:10052000FCEFBC9C9F40F2BAA56FA5F490055A2A37
:10053000F75C936B6CF9676DC11BFCE0E40D47FE43
:10054000F520E6B500D0ED902E0300943577050038
:1005500080841E080000204E0A000000C80C3333BF
:1005600033330F986E12831141EF8D2114893BE6CE
:100570005516CFFEE6DB18D1844B381BF77C1D9057
:100580001DA4BBE424203284725E228100C9F124C0
:10059000ECA1E53D27434F4D4D554E49434154494C
:1005A0004F4E0044525952554E004552524F5253ED
:1005B00000494E464F004543484F00554E4C4F4171
:1005C000442046494C414D454E54004C4F41442037
:1005D00046494C414D454E540046494C414D454ECF
:1005E00054204348414E47450053544F50504544D2
:1005F0002E20005072696E7465722073746F707073
:1006000065642064756520746F206572726F727303
:100610002E2046697820746865206572726F72209A
:10062000616E6420757365204D39393920746F20EF
:10063000726573746172742E202854656D706572D2
:1006400061747572652069732072657365742E20FC
:1006500053657420697420616674657220726573D5
:1006600074617274696E67290A004E6F2043686571
:10067000636B73756D2077697468206C696E652093
:100680006E756D6265722C204C617374204C696EBE
:10069000653A20004E6F20436865636B73756D206B
:1006A00077697468206C696E65206E756D6265721D
:1006B0002C204C617374204C696E653A200063688D
:1006C00065636B73756D206D69736D617463682C00
:1006D000204C617374204C696E653A20004C696E41
:1006E00065204E756D626572206973206E6F74208F
:1006F0004C617374204C696E65204E756D62657235
:100700002B312C204C617374204C696E653A2000AB
:100710004D3131300053657269616C2073746174BE
:100720007573206D69736D617463680A00534420AA
:1007300072656164206572726F720A002121204B1C
:10074000494C4C2063617573656420627920746F35
:100750006F206D75636820696E61637469766520CA
:1007600074696D65202D2063757272656E742063E7
:100770006F6D6D616E643A2000627573793A207016
:10078000617573656420666F7220696E7075740A96
:1007900000627573793A2070617573656420666FC5
:1007A0007220757365720A00627573793A207072EF
:1007B0006F63657373696E670A004D6564696120D4
:1007C00052656D6F766564004D6564696120496EA0
:1007D000736572746564004D313030305300506F72
:1007E000776572204F7574616765004D3630300053
:1007F000506C656173652052657365740050524991
:100800004E5445522048414C5445440025533A200B
:100810002553004B494C4C45442E20005072696EC4
:100820007465722068616C7465642E206B696C6CF1
:1008300028292063616C6C6564210A006563686F18
:100840003A004572726F723A0042696C696E656176
:1008500072204C6576656C696E6720477269643AF0
:100860000A00486F74656E6420746F6F20636F6C4C
:10087000640A004F46460A0046616465204865697F
:100880006768742000426564204C6576656C696E0B
:100890006720004661696C656420746F20656E6135
:1008A000626C6520426564204C6576656C696E6794
:1008B0000A00496E76616C6964206D6573682E0A62
:1008C00000477269642070726F62696E6720646F9E
:1008D0006E652E0A0069646C650A00206F66200050
:1008E000706F696E7420004D616E75616C204732C7
:1008F0003920004D616E75616C204732392061628C
:100900006F727465640A00202844525952554E296A
:1009100000473239204175746F20426564204C6570
:1009200076656C696E67003F20284C2C522C462C53
:100930004229206F7574206F6620626F756E647334
:100940002E0A003F2856296572626F7365206C6518
:1009500076656C20696D706C61757369626C652079
:1009600028302D34292E0A00426164205A207661F5
:100970006C75650A004E6F2062696C696E65617204
:1009800020677269640A00252900257C0020280060
:1009900020496E76616C69642045207374657070BF
:1009A0006572200020452073746570706572206E3A
:1009B0006F74207370656369666965640A00496EC7
:1009C000736572742066696C616D656E7420616E0A
:1009D0006420707265737320627574746F6E0A00A0
:1009E000507265737320627574746F6E20746F201B
:1009F00068656174206E6F7A7A6C650A00496E735F
:100A00006572742066696C616D656E7420616E64D8
:100A100020707265737320627574746F6E0A004D76
:100A200032342053256C642054256C6400473932DD
:100A30002E3920452573004731204625640047396B
:100A4000322E39205A2573004731205A3020463241
:100A50003030004731205825732059257320463304
:100A6000303030004D34323020532569205A257300
:100A7000004D3130362050256920532569004D3214
:100A800030302044257300473238523058590047DF
:100A900039322E39204530205A300A47315A2573D1
:100AA000004D31303920532569004D313930205304
:100AB0002569004D343230205330205A300020490F
:100AC0006E76616C696420657874727564657220F5
:100AD00000536C6565702E2E2E004D657368207076
:100AE0006F696E74206F7574206F662072616E6717
:100AF000650A00436C69636B20746F2052657375DF
:100B00006D652E2E2E004E6F204D6F76652E0045A2
:100B10006E642066696C65206C6973740A004265B6
:100B200067696E2066696C65206C6973740A004E93
:100B30006F206D656469610A00286E6F2066696CBC
:100B400065290043757272656E742066696C653A3A
:100B500020005344207072696E74696E6720627958
:100B6000746520004E6F74205344207072696E7457
:100B7000696E670A002569730025696D2025697310
:100B8000002569682025696D202569730025696441
:100B9000202569682025696D2025697300256979FC
:100BA00020256964202569682025696D20256973E1
:100BB000005072696E742074696D653A2000436F4D
:100BC0006F6C696E672E2E2E0048656174696E67C2
:100BD0002E2E2E0045202553006F6B006F66660099
:100BE000B605B105AA05A305950544454255473A02
:100BF000004D3131322053687574646F776E004D4B
:100C000031313320530020573A0042656420436F4E
:100C10006F6C696E672E2E2E0042656420486561F8
:100C200074696E672E2E2E0047656565746563686E
:100C30002041313054204F46462E004D45415450FE
:100C400041434B00434F4F4C45525F54454D504537
:100C5000524154555245004348414D4245525F541C
:100C6000454D504552415455524500424142595319
:100C700054455050494E470041524353004D4F5444
:100C8000494F4E5F4D4F44455300544845524D41E6
:100C90004C5F50524F54454354494F4E004C4F4EB9
:100CA000475F46494C454E414D45004155544F52D2
:100CB00045504F52545F53445F5354415455530071
:100CC00053445F57524954450052455045415400E2
:100CD0005344434152440050524F4D50545F53557A
:100CE00050504F525400454D455247454E43595F71
:100CF00050415253455200434153455F4C49474888
:100D0000545F4252494748544E45535300544F474D
:100D1000474C455F4C494748545300534F4654573E
:100D20004152455F504F574552004255494C445F30
:100D300050455243454E54004C4556454C494E474C
:100D40005F44415441005A5F50524F424500525552
:100D50004E4F5554004155544F4C4556454C00504C
:100D600052494E545F4A4F420050524F47524553EA
:100D700053004155544F5245504F52545F54454DC6
:100D80005000564F4C554D4554524943004545502F
:100D9000524F4D0042494E4152595F46494C455FC2
:100DA0005452414E534645520053455249414C5FBF
:100DB000584F4E5F584F4646004649524D57415294
:100DC000455F4E414D453A4D61726C696E206275CA
:100DD000676669782D322E302E7820284D6172207A
:100DE000323920323032312031333A35333A3436E9
:100DF0002920534F555243455F434F44455F555259
:100E00004C3A6769746875622E636F6D2F4D61721D
:100E10006C696E4669726D776172652F4D61726C97
:100E2000696E2050524F544F434F4C5F56455253BA
:100E3000494F4E3A312E30204D414348494E455F8F
:100E4000545950453A47656565746563682041317A
:100E500030542045585452554445525F434F554EE7
:100E6000543A3120555549443A63656465326132DC
:100E7000662D343161322D343734382D39623132B8
:100E80002D6335356336326633363766660A002F92
:100E90002F004D31343520533C696E6465783E2017
:100EA0006F7574206F662072616E67652028302D23
:100EB00031290A00203B2043757272656E74205AF6
:100EC00000203B20456E6400203B20537461727407
:100ED00000202854004772616469656E74204D6972
:100EE000782000205200416363656C65726174690B
:100EF0006F6E3A2050003F4A206F7574206F662055
:100F000072616E67652028302E303120746F20307A
:100F10002E33290A004F4646004F4E00205800202D
:100F2000204D61783A2000200020204D696E3A2043
:100F300000536F667420656E6473746F70733A202B
:100F40000046523A0020466C6F773A200020643AFF
:100F50000020693A0020703A00496E76616C69643D
:100F60002065787472756465720A0020643A002006
:100F7000693A0020703A0064697300656E00432985
:100F80000A0061626C656420286D696E2074656D6D
:100F9000702000436F6C64206578747275646573AB
:100FA00020617265200046696C616D656E74207207
:100FB000756E6F757420004D34323120696E636F29
:100FC000727265637420706172616D657465722000
:100FD00075736167650A004D65736820706F696E8F
:100FE00074206F7574206F662072616E67650A00E9
:100FF000454550524F4D204F4B0A00506F77657258
:101000002D6C6F7373207265636F76657279200043
:101010004D383400446F6E65207072696E74696E6D
:10102000672066696C650A004D3737004D33310023
:10103000496E76616C696420657874727564657256
:101040000A004361703A0047322F473320626164DF
:1010500020706172616D65746572730A0023646546
:1010600066696E652044454641554C545F00626593
:1010700064004B6420004B6920004B7020005049F5
:1010800044204175746F74756E652066696E69736E
:10109000686564212050757420746865206C6173E4
:1010A00074204B702C204B6920616E64204B6420AF
:1010B000636F6E7374616E74732066726F6D2062FD
:1010C000656C6F7720696E746F20436F6E66696719
:1010D00075726174696F6E2E680A00504944204130
:1010E00075746F74756E65206661696C6564212026
:1010F00074696D656F75740A0050494420417574B8
:101100006F74756E65206661696C65642120546535
:101110006D706572617475726520746F6F20686997
:1011200067680A00204B643A2000204B693A20008F
:10113000204B703A200020436C6173736963205028
:101140004944200A00204E6F206F76657273686FE5
:101150006F740A002054753A2000204B753A200025
:10116000206D61783A2000206D696E3A200020647D
:101170003A200020626961733A20005049442041BE
:1011800075746F74756E652073746172740A0050A3
:101190004944204175746F74756E65206661696C91
:1011A0006564212054656D70657261747572652087
:1011B000746F6F20686967680A0050494420417560
:1011C000746F74756E6500504944204175746F7476
:1011D000756E65206661696C6564212042616420DA
:1011E0006865617465722069640A00A10000006985
:1011F00000A20000006300B00000000900C1000070
:10120000004100C20000004100C30000004100C4D2
:101210000000004100C50000004100C60000004180
:1012200045C70000004300C80000004500C9000099
:10123000004500CD0000004900D10000004E00D55F
:101240000000004F00D60000004F00D700000078DB
:1012500000DC0000005500DD0000005900E0000047
:10126000006100E10000006100E20000006100E3B5
:101270000000006100E40000006100E50000006182
:1012800000E60000006165E70000006300E8000080
:10129000006500E90000006500EA0000006500EB61
:1012A0000000006500EC0000006900ED000000692E
:1012B00000EE0000006900EF0000006900F100008E
:1012C000006E00F20000006F00F30000006F00F4F9
:1012D0000000006F00F50000006F00F60000006FD6
:1012E00000F80000006F00F90000007500FA00002F
:1012F000007500FB0000007500FC0000007500FD9B
:101300000000007900FF00000079000401000041A6
:101310000005010000610006010000430007010014
:101320000063000C01000043000D01000063000E8B
:1013300001000044000F010000640011010000647E
:10134000001901000065001A01000045001B0100A2
:101350000065001F010000670030010000490031F6
:101360000100006900410100004C00420100006CD6
:1013700000430100004E00440100006E00480100DF
:10138000006E005801000052005901000072005A1E
:1013900001000053005B01000073005F0100007357
:1013A000006001000053006101000073006501004E
:1013B0000074006F01000075007C0100007A007D60
:1013C0000100005A007E0100007A009201000066D0
:1013D00000E30200007800222000002E001E210001
:1013E00000507822210000544D902100003C2D92A5
:1013F0002100002D3EB02100000300BB21000004AD
:10140000003C2200007E00482200007E3D60220059
:1014100000213D612200003D00642200003C3D654A
:101420002200003E3DF12300000700A03000003DF7
:101430000021F301000200C2F401000500A2000037
:1014400000EC00B0000000DF00E4000000E100F666
:10145000000000EF00F7000000FD00FC000000F5B8
:1014600000E3020000EB0087030000A5008F0300EB
:1014700000F40098030000F2009E030000E300A3C4
:10148000030000F600A9030000F400AC030000E034
:1014900000AD030000E300B1030000E000B2030070
:1014A00000E200B5030000E300B8030000F200BC56
:1014B000030000E400BE030000E300C0030000F7E7
:1014C00000C1030000E600C3030000E50090210016
:1014D000007F00922100007E001A220000E8001E1A
:1014E000220000F30088250000FF0002300000A168
:1014F000000C300000A2000D300000A3009B300063
:1015000000DE009C300000DF00A03000003D00A1A4
:10151000300000A700A2300000B100A3300000A8F6
:1015200000A4300000B200A5300000A900A63000E1
:1015300000B300A7300000AA00A8300000B400A942
:10154000300000AB00AA300000B500AB300000B6A0
:1015500000AC300000B6DEAD300000B700AE3000A9
:1015600000B7DEAF300000B800B0300000B8DEB128
:10157000300000B900B2300000B9DEB3300000BA6C
:1015800000B4300000BADEB5300000BB00B6300059
:1015900000BBDEB7300000BC00B8300000BCDEB9D4
:1015A000300000BD00BA300000BDDEBB300000BE20
:1015B00000BC300000BEDEBD300000BF00BE300009
:1015C00000BFDEBF300000C000C0300000C0DEC180
:1015D000300000C100C2300000C1DEC3300000AFE7
:1015E00000C4300000C200C5300000C2DEC63000BA
:1015F00000C300C7300000C3DEC8300000C400C90B
:10160000300000C4DECA300000C500CB300000C688
:1016100000CC300000C700CD300000C800CE300044
:1016200000C900CF300000CA00D0300000CADED1AF
:10163000300000CADFD2300000CB00D3300000CB36
:10164000DED4300000CBDFD5300000CC00D6300037
:1016500000CCDED7300000CCDFD8300000CD00D980
:10166000300000CDDEDA300000CDDFDB300000CE10
:1016700000DC300000CEDEDD300000CEDFDE3000EA
:1016800000CF00DF300000D000E0300000D100E1EA
:10169000300000D200E2300000D300E3300000ACA4
:1016A00000E4300000D400E5300000AD00E630007A
:1016B00000D500E7300000AE00E8300000D600E9B9
:1016C000300000D700EA300000D800EB300000D92D
:1016D00000EC300000DA00ED300000DB00EF3000FD
:1016E00000DC00F2300000A600F3300000DD00F462
:1016F000300000B3DEF7300000DCDEFA300000A678
:10170000DEFB300000A500FC300000B000FD300022
:1017100000A400074E0000FB0086510000FC0043BF
:10172000530000FA0064FF0000A40065FF0000A55C
:101730000066FF0000A60067FF0000A70068FF002A
:1017400000A80069FF0000A9006AFF0000AA006B62
:10175000FF0000AB006CFF0000AC006DFF0000ADAF
:10176000006EFF0000AE006FFF0000AF0070FF00D2
:1017700000B00071FF0000B10072FF0000B2007302
:10178000FF0000B30074FF0000B40075FF0000B557
:101790000076FF0000B60077FF0000B70078FF007A
:1017A00000B80079FF0000B9007AFF0000BA007BA2
:1017B000FF0000BB007CFF0000BC007DFF0000BDFF
:1017C000007EFF0000BE007FFF0000BF0080FF0022
:1017D00000C00081FF0000C10082FF0000C2008342
:1017E000FF0000C30084FF0000C40085FF0000C5A7
:1017F0000086FF0000C60087FF0000C70088FF00CA
:1018000000C80089FF0000C9008AFF0000CA008BE1
:10181000FF0000CB008CFF0000CC008DFF0000CD4E
:10182000008EFF0000CE008FFF0000CF0090FF0071
:1018300000D00091FF0000D10092FF0000D2009381
:10184000FF0000D30094FF0000D40095FF0000D5F6
:101850000096FF0000D60097FF0000D70098FF0019
:1018600000D80099FF0000D9009AFF0000DA009B21
:10187000FF0000DB009CFF0000DC009DFF0000DD9E
:10188000009EFF0000DE009FFF0000DF00E5FF007C
:10189000005C00001C1F11111F0000000619180336
:1018A000130C00040E1F041C000000001010101088
:1018B000101000001414141414140000151515153C
:1018C000151500000E1315110E00001C1018170539
:1018D000060500040A0A0A0A11110E0C12120C0065
:1018E000000000001F1511151F000000000000017E
:1018F0000204040000001C1C0C040404020100008B
:1019000000000004081000000000002D2D2D2D2DDA
:101910002D007C4D61726C696E7C002D2D2D2D2D5E
:101920002D0042656400456E636C6F7375726500CF
:101930002568753A25303268750025303268753A69
:101940002530326875002D2D2D00534400202020B5
:10195000202020200020202020005072696E74205A
:1019600041626F72746564004D3235005061757369
:10197000696E672E2E2E004D323400454550524F71
:101980004D2056657273696F6E204572726F7200DA
:10199000454550524F4D20496E646578204572721E
:1019A0006F7200454550524F4D20435243204572BF
:1019B000726F72003F0049676E6F72650052657307
:1019C000657400496E697469616C697A6520454582
:1019D00050524F4D004C6F6164206D6D00556E6C20
:1019E0006F6164206D6D0046696C2E204469612E24
:1019F000004520696E206D6D5E33004D333033201D
:101A0000553120452569205325690050494420411E
:101A100075746F74756E65202A002002204661631C
:101A200074002002204D6178002002204D696E0074
:101A30004F6666004F6E004175746F74656D70007F
:101A40005654726176204D696E00566D696E00566F
:101A50006D6178204500566D6178205A00566D61A1
:101A600078205900566D6178205800416D617820CA
:101A70004500416D6178205A00416D617820590020
:101A8000416D6178205800412D54726176656C007B
:101A9000412D5265747261637400416363656C002B
:101AA000452073746570732F6D6D005A20537465F3
:101AB00070732F6D6D00592053746570732F6D6DA9
:101AC00000582053746570732F6D6D00416476610A
:101AD0006E6365642053657474696E6773003F00BC
:101AE00043616E63656C00496E697400496E697488
:101AF00069616C697A6520454550524F4D004669D1
:101B00006C616D656E740054656D7065726174759D
:101B100072650053746570732F6D6D004A756E6346
:101B200074696F6E2044657600416363656C65720D
:101B30006174696F6E0056656C6F636974790043F8
:101B40006F6E66696775726174696F6E003F004EF3
:101B500065787420436F726E657200446F6E650025
:101B60004E657874004C6576656C696E6720446FCD
:101B70006E6521004D6F7665205A00473239563127
:101B8000004E65787420506F696E74002569202FAF
:101B900020257500473239563100436C69636B204C
:101BA000746F20426567696E00486F6D696E6720CB
:101BB00058595A0053746F72652053657474696E76
:101BC0006773004C6F61642053657474696E67734A
:101BD000004C6576656C20436F726E6572730046CB
:101BE00061646520486569676874004F6666004FE8
:101BF0006E00426564204C6576656C696E67004CCA
:101C00006576656C20426564004D6F74696F6E0087
:101C1000426564004E6F7A7A6C650046616E2053AF
:101C20007065656400436F6E66696775726174699B
:101C30006F6E00526573746F7265204465666175DE
:101C40006C7473004C6F61642053657474696E67C3
:101C5000730053746F72652053657474696E677393
:101C60000050726568656174202420436F6E6600C1
:101C7000506F776572204F7574616765004F6666B7
:101C8000004F6E0052756E6F75742053656E736FE2
:101C90007200416476616E63656420536574746993
:101CA0006E6773004D61696E004D373032205425E8
:101CB00064004D36303020423020542564004D37CA
:101CC0003032203B2564004D3730312054256400EC
:101CD0004368616E67652046696C616D656E74006E
:101CE0005072656865617420437573746F6D005040
:101CF0007265686561742024004261636B004D3633
:101D0000303020423020542569004368616E676599
:101D10002046696C616D656E74202A004D61696EA4
:101D200000436F6E74696E7565004F6666004F6E96
:101D30000052756E6F75742053656E736F7200502C
:101D400075726765206D6F726500524553554D453C
:101D5000204F5054494F4E533A005052494E542050
:101D60005041555345440020204E6F7A7A6C653AB5
:101D7000200041425300504C41005061726B696E2B
:101D8000672E2E2E0000005761697420666F720066
:101D900066696C616D656E74206368616E6765006D
:101DA000746F207374617274005761697420666F78
:101DB000720066696C616D656E7420756E6C6F6122
:101DC0006400004E6F7A7A6C652068656174696E94
:101DD0006700506C6561736520776169742E2E2EE3
:101DE0000000507265737320627574746F6E0074B6
:101DF0006F2068656174206E6F7A7A6C65000049A7
:101E00006E736572742066696C616D656E740061D5
:101E10006E6420707265737320627574746F6E00E7
:101E2000746F20636F6E74696E75650057616974B5
:101E300020666F720066696C616D656E74206C6FF0
:101E400061640000507265737320427574746F6E24
:101E500000746F20726573756D65207072696E74A1
:101E600000005761697420666F72207072696E7429
:101E700000746F20726573756D652E2E2E000057ED
:101E800061697420666F720066696C616D656E745D
:101E900020707572676500003135300035004245AD
:101EA000443A204550434F53203130304B00527557
:101EB0006E617761792057617463683A204F4E00F4
:101EC0004D61782054656D7000323735004D696E74
:101ED0002054656D7000350045313A204550434F20
:101EE00053203130304B005053550047656E6572BA
:101EF00069630050726F746F636F6C00312E300035
:101F0000426175640032353030303000475432352C
:101F1000363020526576422F332E782F342E7800BB
:101F200042696C696E656172204C6576656C696E9C
:101F300067004578747275646572730031006D6175
:101F4000726C696E66772E6F72670047656565749F
:101F5000656368204131305400323032312D3033E6
:101F60002D3239006275676669782D322E302E78F1
:101F7000004D61726C696E00546865726D697374AE
:101F80006F727300426F61726420496E666F005019
:101F900072696E74657220496E666F004D61696E7C
:101FA000004D313030300053746F70205072696EC4
:101FB0007400526573756D65205072696E740050BF
:101FC0006F776572204F7574616765003F004261ED
:101FD000636B0053746F70005072696E7420667288
:101FE0006F6D204D65646961004368616E676520AF
:101FF0004D65646961004D32310041626F75742036
:102000005072696E746572004368616E6765204640
:10201000696C616D656E7400436F6E666967757299
:102020006174696F6E004D697865720054656D70FA
:1020300065726174757265004D6F74696F6E0052E0
:102040006573756D65205072696E74004E6F204D1A
:10205000656469610054756E650053746F7020503B
:1020600072696E74005061757365205072696E7488
:1020700000496E666F2053637265656E003F0053C2
:1020800074617274205072696E740043616E63658E
:102090006C005072696E740043616E6E6F742065DF
:1020A0006E746572207375626469723A2000052E41
:1020B0002E004D61696E002534642E2564206D6DFF
:1020C000002534642E2564206D6D002020456E644B
:1020D000205A3A002534642E2564206D6D00537417
:1020E000617274205A3A00416C69617320562D74F4
:1020F0006F6F6C002020456E6420562D746F6F6CDE
:1021000000537461727420562D746F6F6C00436FAE
:102110006D6D697420562D746F6F6C204D69780059
:102120004379636C65204D697800436F6D706F6E05
:10213000656E74203D004D6978657200562D746F90
:102140006F6C732057657265205265736574003F2C
:102150000043616E63656C0052657365740052657F
:102160007665727365204772616469656E740054A8
:1021700025692D3E542569004772616469656E7456
:1021800000526573657420562D746F6F6C73004D2B
:1021900069780041637469766520562D746F6F6CA1
:1021A000004D61696E002100486F74656E64207493
:1021B0006F6F20636F6C64004261636B0050726FDD
:1021C00063656564004D6F74696F6E004469736187
:1021D000626C65205374657070657273004D38349D
:1021E00000426564204C6576656C696E67004175D8
:1021F000746F20486F6D6500473238004D61696E1D
:102200000050726568656174202420456E6400503A
:102210007265686561742024204265640054656DB0
:10222000706572617475726500761D721D436F6F03
:102230006C646F776E00507265686561742024006D
:1022400046616E205370656564207E0042656400BF
:102250004E6F7A7A6C65004D61696E0042616279F9
:1022600073746570205A00466C6F770046616E206B
:102270005370656564207E00426564004E6F7A7A13
:102280006C65005370656564004D61696E00486F50
:102290006D696E67204661696C6564006F70656E7C
:1022A00000545249474745524544003A2000666968
:1022B0006C616D656E74007A5F6D696E00795F6D3B
:1022C000696E00785F6D696E005265706F72746937
:1022D0006E6720656E6473746F70207374617475BB
:1022E000730A0020746F6F206C6F6E6720657874BE
:1022F000727573696F6E2070726576656E74656451
:102300000A0020636F6C6420657874727573696F5E
:102310006E2070726576656E7465640A000000A0B8
:10232000C000000000000000005761726E696E6717
:102330003A20486F6D696E672042756D7020446960
:102340007669736F72203C20310A0002020400009B
:102350006B4300006643000082430000A040000081
:10236000A0400000004000006643000066430000FB
:1023700082430000A0C00000000000000000536580
:102380007474696E67732053746F726564003B20C8
:102390000020204D363033200020204D34313220B3
:1023A000530046696C616D656E742072756E6F7551
:1023B000742073656E736F723A002055004C0046AE
:1023C000696C616D656E74206C6F61642F756E6CE5
:1023D0006F6164206C656E677468733A0020204DED
:1023E000343133205300506F7765722D4C6F737307
:1023F000205265636F766572793A00204400204967
:102400000020204D3330342050002044002049006B
:1024100020204D33303120500050494420736574E2
:1024200074696E67733A002046002042002048001D
:1024300020204D3134352053004D6174657269613F
:102440006C2068656174757020706172616D65746F
:102450006572733A00204A00202047323920572005
:10246000490020204D3432302053004175746F20D4
:10247000426564204C6576656C696E673A00204A57
:102480000020530020204D32303520420041647638
:10249000616E6365643A20423C6D696E5F73656787
:1024A0006D656E745F74696D655F75733E20533C36
:1024B0006D696E5F66656564726174653E20543C4B
:1024C0006D696E5F74726176656C5F666565647276
:1024D0006174653E204A3C6A756E635F6465763E52
:1024E0000020540020520020204D32303420500073
:1024F000416363656C65726174696F6E2028756EE7
:102500006974732F7332293A20503C7072696E746B
:102510005F616363656C3E20523C726574726163F7
:10252000745F616363656C3E20543C7472617665D0
:102530006C5F616363656C3E0020204D323031205A
:1025400058004D6178696D756D20416363656C65F8
:10255000726174696F6E2028756E6974732F73329F
:10256000293A0020204D3230332058004D617869DF
:102570006D756D206665656472617465732028757C
:102580006E6974732F73293A0053746570732070E9
:10259000657220756E69743A0020440020204D3227
:1025A00030302053002044697361626C65640A0016
:1025B00046696C616D656E742073657474696E67CD
:1025C000733A0020204D3134392043203B20556E92
:1025D00069747320696E2043656C736975730A00B2
:1025E00020286D6D29002020473231202020203BFB
:1025F00020556E69747320696E206D6D000000FABD
:10260000430000FA430000A0400000C8410000A0C1
:10261000420000A0420000C8430000D743F401007C
:1026200000F4010000640000008813000024F4D4CA
:102630003050C38E20C2A24017828B7011127A9143
:102640000D816CD90AA861E108C75866076151433A
:10265000061E4B5D05C145A7041A411104093D98AA
:1026600003713931034036DB0265339102D43054B3
:1026700002802E1D02632CEE01752AC501B028A030
:1026800001102781018F2564012B244B01E02234A6
:1026900001AC211F018D200D01801FFC00841EED67
:1026A00000971DDF00B81CD200E61BC600201BBC33
:1026B00000641AB200B219A8000A19A0006A189999
:1026C00000D117910040178B00B516840031167E9B
:1026D00000B31579003A157300C7146F0058146AD7
:1026E00000EE1366008813630025135E00C7125BBB
:1026F000006C12570015125400C111510070114F97
:102700000021114B00D61049008D1047004610449F
:102710000002104200C00F4000800F3E00420F3CFC
:1027200000060F3B00CB0E3800930E37005C0E35D1
:1027300000270E3400F30D3200C10D3100900D3032
:1027400000600D2E00320D2D00050D2C00D90C2B34
:1027500000AE0C2900850C29005C0C2700350C27E5
:10276000000E0C2600E80B2400C40B2400A00B2351
:10277000007D0B23005A0B2100390B2100180B2080
:1027800000F80A1F00D90A1E00BB0A1E009D0A1D80
:1027900000800A1D00630A1C00470A1B002C0A1B4C
:1027A00000110A1A00F7091A00DD091900C40919F5
:1027B00000AB091900920917007B0918006309177B
:1027C000004C09160036091600200916000A0915E2
:1027D00000F5081500E0081400CC081400B808142F
:1027E00000A4081400900813007D0812006B081361
:1027F000005808120046081200340811002308117E
:10280000001208110001081100F0071000E0071085
:1028100000D0071000C0071000B0070F00A107107C
:102820000091070E0083070F0074070F0065070E65
:102830000057070E0049070E003B070D002E070E3C
:102840000020070D0013070D0006070D00F9060C08
:1028500000ED060D00E0060C00D4060C00C8060CC6
:1028600000BC060C00B0060C00A4060B0099060C78
:10287000008D060B0082060B0077060B006C060B22
:102880000061060A0057060B004C060A0042060AC1
:102890000038060A002E060A0024060A001A060A54
:1028A000001006090007060A00FD050900F40509E5
:1028B00000EB050900E2050900D9050900D005096A
:1028C00000C7050900BE050900B5050800AD0508EB
:1028D00000A50509009C050800940508008C050862
:1028E00000840508007C050800740508006C0507D5
:1028F00000650508005D050700560508004E050740
:1029000000470507004005080038050700310507A6
:10291000002A050700230507001C05060016050709
:10292000000F0507000805060002050700FB040666
:1029300000F5040700EE040600E8040600E20407C0
:1029400000DB040600D5040600CF040600C9040617
:1029500000C3040600BD040600B7040600B1040568
:1029600000AC040600A6040600A00405009B0406B3
:102970000095040500900406008A040500850405FE
:1029800000800406007A0405007504050070040543
:10299000006B04050066040500610405005C040585
:1029A0000057040500520405004D040500480405C5
:1029B00000430405003E0404003A04050035040504
:1029C00000300404002C040500270404002304053F
:1029D000001E0404001A0404001604050011040477
:1029E000000D0404000904050004040400000404AC
:1029F00000FC030400F8030400F4030400F00304E3
:102A000000EC030400E8030400E4030400E0030412
:102A100000DC030400D8030400D4030400D0030442
:102A200000CC030400C8030300C503030024F4041E
:102A3000D9201BC40C5C0E9804C4095F02650771A1
:102A400001F405F900FB04B30048048700C10369E1
:102A5000005803550003034500BE023A00840231CA
:102A60000053022A002902250004022000E4011C70
:102A700000C8011900AF0117009801140084011368
:102A800000710110006101100051010E0043010DA1
:102A90000036010B002B010B0020010B0015010972
:102AA000000C01090003010800FB000800F3000806
:102AB00000EB000700E4000600DE000600D8000678
:102AC00000D2000600CC000500C7000500C20005CA
:102AD00000BD000400B9000400B5000400B100040A
:102AE00000AD000400A9000400A5000300A200033B
:102AF000009F0004009B0003009800030095000263
:102B00000093000300900003008D0002008B00037F
:102B10000088000200860002008400030081000299
:102B2000007F0002007D0002007B000200790002AD
:102B300000770001007600020074000200720001BC
:102B400000710002006F0002006D0001006C0002C5
:102B5000006A0001006900020067000100660001D0
:102B600000650001006400020062000100610001D4
:102B700000600001005F0002005D0001005C0001D8
:102B8000005B0001005A00010059000100580001DB
:102B900000570001005600010055000100540001DB
:102BA00000530000005300010052000100510001D9
:102BB00000500001004F0001004E0000004E0001D7
:102BC000004D0001004C0001004B0000004B0001D3
:102BD000004A0001004900010048000000480001CF
:102BE00000470001004600000046000100450000CB
:102BF00000450001004400010043000000430001C3
:102C000000420000004200010041000000410001BC
:102C100000400001003F0000003F0001003E0000B6
:102C2000003E0001003D0000003D0001003C0000AE
:102C3000003C0000003C0001003B0000003B0001A4
:102C4000003A0000003A000100390000003900019C
:102C50000038000000380000003800010037000094
:102C60000037000100360000003600000036000189
:102C70000035000000350000003500010034000080
:102C80000034000000340001003300000033000075
:102C90000033000100320000003200000032000169
:102CA0000031000000310000003100010030000060
:102CB0000030000000300001002F0000002F000055
:102CC000002F0000002F0001002E0000002E000049
:102CD000002E0001002D0000002D0000002D00003E
:102CE000002D0001002C0000002C0000002C000032
:102CF000002C0001002B0000002B0000002B000026
:102D0000002B0001002A0000002A0000002A000019
:102D1000002A00010029000000290000002900000D
:102D20000029000000290001002800000028000000
:102D300000280000002800000028000100270000F3
:102D400000270000002700000027000000270001E6
:102D500000260000002600000026000000260000DB
:102D600000260001002500000025000000250000CD
:102D700000250000002500000025000100240000BF
:102D800000240000002400000024000000240001B2
:102D900000230000002300000023000000230000A7
:102DA0000023000000230000002300010022000097
:102DB000002200000022000000220000002200008B
:102DC000002200010021000000210000002100007D
:102DD000002100000021000000210000002100016E
:102DE0000020000000200000002000000020000063
:102DF0000020000000200000002000000020000152
:102E0000001F0000001F0000001F0000001F000046
:102E1000001F0000001F0000001F0001001E000036
:102E2000001E0000001E0000001E000000A42C0078
:102E300000841E0000B0120000870A00009E0500FA
:102E400000E90200007B010000BF00000020436F8A
:102E5000756E7420583A0042656400453100626521
:102E600064002C2073797374656D2073746F7070B7
:102E7000656421204865617465725F49443A2000A9
:102E800048656174696E67204661696C65640048D5
:102E9000656174696E67206661696C6564007001C4
:102EA0002C0190012701B0012201C0011D01F00198
:102EB00018011002130130020E0160020901900294
:102EC0000401C002FF000003FA004003F500800384
:102ED000F000D003EB002004E6007004E100E00401
:102EE000DC004005D700C005D2004006CD00D0066A
:102EF000C8008007C3003008BE00F008B900C00950
:102F0000B400B00AAF00B00BAA00D00CA500000EB0
:102F1000A000500F9B00C0109600501291000014AA
:102F20008C00C0158700B0178200B0197D00D01B3F
:102F30007800001E730040206E0090226900F0248B
:102F4000640040275F0090295A00E02B5500102EA6
:102F5000500020304B0010324600E03341009035E5
:102F60003C001037370070383200A0392D00B03ADD
:102F70002800A03B2300603C1E00103D1900903D3E
:102F80001400103E0F00703E0A00C03E0500003FD6
:102F90000000403FFBFF803FF6FFC03FF1FF544879
:102FA00045524D414C2052554E41574159005468AD
:102FB00065726D616C2052756E6177617900457242
:102FC000723A204D415854454D50004D415854459A
:102FD0004D5020747269676765726564004572724E
:102FE0003A204D494E54454D50004D494E54454DA3
:102FF000502074726967676572656400202F002035
:1030000042403A0020403A007C3C3E5E2B3D3F2F40
:103010005B5D3B2C2A225C0043616E6E6F74206FF7
:1030200070656E2073756264697220005344204994
:103030006E6974204661696C005344206361726458
:10304000206F6B0A006F70656E526F6F742066613F
:10305000696C65640A00766F6C756D652E696E69C2
:1030600074206661696C65640A004E6F20534420C9
:10307000636172640A000A4D3234004D32332025F8
:1030800073002E0A006F70656E206661696C65645E
:103090002C2046696C653A200046696C6520736592
:1030A0006C65637465640A002053697A653A200090
:1030B00046696C65206F70656E65643A2000454E08
:1030C0004420535542524F5554494E450A00222040
:1030D000706F73002220706172656E743A22005323
:1030E0005542524F5554494E452043414C4C207453
:1030F00061726765743A220053756263616C6C207B
:103100004F766572666C6F770045786365656465B8
:1031100064206D617820535542524F5554494E45B5
:103120002064657074683A002E0A0044656C65740A
:10313000696F6E206661696C65642C2046696C65F8
:103140003A200046696C652064656C657465643A74
:10315000002F6175746F25632E670057726974695B
:103160006E6720746F2066696C653A200066726530
:10317000736800646F696E67002066696C653A2049
:10318000004E6F772000026D61726C696E66772E5B
:103190006F7267006D61726C696E66772E6F726711
:1031A000006D61726C696E66772E6F726700627572
:1031B000676669782D322E302E78006275676669F1
:1031C000782D322E302E78006275676669782D3240
:1031D0002E302E78006D61726C696E66772E6F727C
:1031E00067006D61726C696E66772E6F7267006D35
:1031F00061726C696E66772E6F7267002062756708
:103200006669782D322E302E78002020506C616E49
:103210006E657242756666657242797465733A20AE
:10322000002046726565204D656D6F72793A200009
:10323000436F6D70696C65643A204D61722032395C
:1032400020323032310A00204C6173742055706492
:10325000617465643A20323032312D30332D323989
:10326000207C20417574686F723A20286E6F6E65FD
:103270002C2064656661756C7420636F6E66696787
:10328000290A006275676669782D322E302E780A19
:10329000004D61726C696E0020536F6674776172C5
:1032A000652052657365740A002057617463686411
:1032B0006F672052657365740A002042726F776EE3
:1032C000206F75742052657365740A002045787408
:1032D00065726E616C2052657365740A00506F7779
:1032E000657255700A0073746172740A0047323750
:1032F000004D31303031006F6B006572726F72209B
:1033000077726974696E6720746F2066696C650AEC
:1033100000446F6E6520736176696E672066696C24
:10332000652E0A004D323900456E6473746F7073F8
:103330000025532025632025632025632025630075
:10334000205A3A0020593A0020583A00656E6473BA
:10335000746F7073206869743A20000000210024A3
:103360000027002A002D0030003300010100000476
:103370000107010A0100002200250028002B002E71
:10338000003100340002010000050108010B0100BA
:103390000020002300260029002C002F003200000E
:1033A00001000003010601090105050505070508DF
:1033B000080808020202020A0A08080404040401B8
:1033C00001010101010101030303030303030304DA
:1033D0000707070C0C0C0C0C0C0C0C02020202066A
:1033E000060606060606060B0B0B0B0B0B0B0B015A
:1033F0000210202008081020401020408002010206
:1034000001080402010102040810204080804020CD
:103410001008040201800402018040201008040208
:103420000108040201010204081020408001020486
:10343000081020408000000A0B02090C0D0E08073E
:103440000304010000000000000000000000000074
:10345000000000000000000000000000000000006C
:103460000012111000000000000000000000000029
:103470000000000000000000000000004D6F7665B5
:103480002025736D6D004D6F766520302E316D6D8A
:10349000004D6F766520316D6D004D6F7665203182
:1034A000306D6D004D6F7665204178697300457809
:1034B000747275646572004D6F7665205A004D6FA9
:1034C00076652059004D6F76652058005072696E00
:1034D000742066726F6D204D6564696100FFFFFFA7
:1034E000486F6D65202573257325732046697273B7
:1034F000740020573A00476565657465636820412C
:103500003130542052656164792E005072696E74B6
:10351000696E672E2E2E005072696E742050617590
:1035200073656400220A00556E6B6E6F776E2063C0
:103530006F6D6D616E643A202200204500205A00B4
:10354000205900204D3932205800DB0FC93F45BCBF
:10355000DA3F8FB30240FCF0274056946140FE4BA7
:103560009B4084A5D840E0231841346A5641E8596D
:10357000974164DBD5416E271742B4B75542CE1A46
:103580009742C8AED542B5885A43D40684BFA65FD9
:10359000A7BF7443E0BF10B11AC01C2C58C0E8F696
:1035A00097C0B849D6C04E4E17C124D355C1802408
:1035B00097C1A0B5D5C1121A17C244AE55C278172B
:1035C00097C26CACD5C267885AC320746F6F206CE9
:1035D0006F6E6720657874727573696F6E20707294
:1035E0006576656E7465640A0020636F6C6420659F
:1035F0007874727573696F6E2070726576656E741B
:1036000065640A00526573656E643A200020453A8D
:1036100000205A3A0020593A00583A004572726F19
:10362000722077726974696E6720746F2045455007
:10363000524F4D210A00C401AC0111241FBECFEF2F
:10364000D1E2DEBFCDBF00E00CBF13E0A0E0B2E0EE
:10365000ECEEF8E502E00BBF02C007900D92A63831
:10366000B107D9F725E1A6E8B3E001C01D92A23F5A
:10367000B207E1F71BE1CCE1DBE100E006C02197F6
:103680000109802FFE010F94B928CB31D10780E0CA
:103690000807A9F70F941F170D94642C0C940000D1
:1036A000CF93DF93EC01CB01BA010F94DF2129EC1A
:1036B00038EC48EC5EE30F94D62920E030E040E09F
:1036C0005FE30F94DC280F944F2A6883DF91CF913A
:1036D0000895E0910F0586E0E802F0011124EE580C
:1036E000F74F8091880890E0958384830895CF9365
:1036F000DF93EC01CB01BA010F94DF2120E030E031
:10370000A9010F94DC28688379838A839B83DF91E6
:10371000CF910895CF93DF93EC01CB01BA010F94C1
:10372000DF2120E030E0A9010F94DC286883798351
:103730008A839B83DF91CF910895CF93DF93EC0130
:10374000CB01BA010F94DF2120E030E040E251E4E8
:103750000F94D62920E030E0A9010F94DC2868837B
:1037600079838A839B83DF91CF910895CF93DF93F1
:10377000EC01CB01BA010F94DF212AE037ED43E2DF
:103780005DE30F94D62920E030E0A9010F94DC28F6
:103790000F944F2A688379838A839B83DF91CF912B
:1037A0000895CF93DF93EC01CB01BA010F94DF2191
:1037B0002AE037ED43E25DE30F94D62920E030E0C4
:1037C000A9010F94DC28688379838A839B83DF9126
:1037D000CF910895CF93DF93EC01CB01BA010F9401
:1037E000DF2120E030E0A9010F94DC286883798391
:1037F0008A839B83DF91CF910895CF93DF93EC0170
:10380000CB01BA010F94DF2120E030E048EC52E414
:103810000F94D62920E030E0A9010F94DC286883BA
:1038200079838A839B83DF91CF910895CF93DF9330
:10383000EC01CB01BA010F94DF2120E030E0A901B7
:103840000F94DC280F94482A79836883DF91CF9105
:103850000895CF93DF93EC01CB01BA010F94DF21E0
:1038600020E030E04AE754E40F94D62920E030E02D
:10387000A9010F94DC28688379838A839B83DF9175
:10388000CF9108958F929F92AF92BF92CF92DF9285
:10389000EF92FF92CF936B017C0120E030E0A90111
:1038A0000F94D82187FDAAC06DEB77E386E095E3FE
:1038B000A70196010F94DC286B017C0120E030E029
:1038C000A9010F94D82187FF9EC0C701B601905867
:1038D00020E030E040E251E40F943E2220E030E06E
:1038E00040E251E40F943E2220E030E040EA50E410
:1038F0000F94DC2820E030E040E251E40F94D62918
:103900000F94482A6B017C0180E28093100560E2ED
:1039100080E1C81687E2D806E104F1048CF0C70103
:10392000B60120E137E240E050E00F949A28CA0146
:10393000B9012AE030E040E050E00F949A28605D41
:103940006093110560E288EEC81683E0D806E104B2
:10395000F1048CF0C701B60128EE33E040E050E0FE
:103960000F949A28CA01B9012AE030E040E050E003
:103970000F949A28605D6093120560E284E6C81691
:10398000D104E104F1048CF0C701B60124E630E073
:1039900040E050E00F949A28CA01B9012AE030E0D3
:1039A00040E050E00F949A28605D609313058AE030
:1039B000882E912CA12CB12CC701B601A501940130
:1039C0000F949A28C62FCA01B901A50194010F943A
:1039D0009A28605D609314058EE280931505C05DA2
:1039E000C093160580E195E0CF91FF90EF90DF90B6
:1039F000CF90BF90AF909F908F9008956DEB77E33D
:103A000086E095EB55CF20E030E040E251E4C7017D
:103A1000B60162CF0F94DF2120E030E040E251E4B4
:103A20000F94D62920E030E0A9010F94DC280C94F3
:103A3000421CFC0184910895FC0180810895AF929D
:103A4000BF92CF92DF92EF92FF920F931F93CF938B
:103A5000DF93EC015B018A01FB01199587FD16C01C
:103A6000C82ED12CF12CE12C2196F801C082D182F4
:103A7000E282F382CE01DF91CF911F910F91FF90EF
:103A8000EF90DF90CF90BF90AF900895982F907EE9
:103A9000903CA9F48F7190E0B0E0A0E06C017D0152
:103AA00056E0CC0CDD1CEE1CFF1C5A95D1F7CE0164
:103AB0000196F50119958F73C82A2296D6CF982FB3
:103AC000907F903E11F58F7090E0B0E0A0E06C0127
:103AD0007D0136E0CC0CDD1CEE1CFF1C3A95D1F7C5
:103AE000CE010196F50119958F73C82A46E0CC0CDA
:103AF000DD1CEE1CFF1C4A95D1F7CE010296F501A4
:103B000019958F73C82A2396B0CF982F987F903F2E
:103B100079F5877090E0B0E0A0E06C017D0186E06F
:103B2000CC0CDD1CEE1CFF1C8A95D1F7CE01019652
:103B3000F50119958F73C82A96E0CC0CDD1CEE1C9C
:103B4000FF1C9A95D1F7CE010296F50119958F7356
:103B5000C82A26E0CC0CDD1CEE1CFF1C2A95D1F7F0
:103B6000CE010396F50119958F73C82A24967DCF4F
:103B7000982F907C903841F4807C803869F42196AD
:103B8000CE01F5011995F8CF8E7F8D3F28F0219653
:103B9000CE01F5011995F8CFC12CD12C760165CF56
:103BA000CF93DF93DB01F9019C919130C1F0943008
:103BB00080F094509C938830D1F48081918100975B
:103BC00071F0019791838083480F591FEA01188291
:103BD00006C08C3539F49C5F9C93943041F4DF919E
:103BE000CF9108958B3339F781E08C93F8CF208102
:103BF0003181B9016F5F7F4F71836083420F531F23
:103C0000EA018883808191818F3591056CF7E7CF38
:103C10000F931F9381E00091B4111091B511209181
:103C2000B6113091B7114091B0115091B11160911E
:103C3000B2117091B311041715072607370708F45E
:103C400080E01F910F910895282F909124048330D4
:103C500021F495FD0FC094FD0FC0892F90E0B0E0D6
:103C6000A0E004C0B695A795979587952A95D2F7B9
:103C70008170089581E0089580E008952F923F9229
:103C80004F925F926F927F928F929F92AF92BF926C
:103C9000CF92DF92EF92FF920F931F93CF93DF9318
:103CA000CDB7DEB72E970FB6F894DEBF0FBECDBFEF
:103CB000E82ED62E042F122F282F30E03C872B879A
:103CC000462F50E05A87498765E0F62EF29EC001E4
:103CD000F39E900D11249E878D87FA01E80FF91F3E
:103CE000EE0FFF1FEE0FFF1FEC5BFA4F608171813B
:103CF000828193819B01AC010F94CE2B882309F420
:103D000034C1E00E612F6D0DFE9CF0011124A985D8
:103D1000BA85AE0FBF1FAA0FBB1FAA0FBB1FAC5B9C
:103D2000BA4FAC901196BC9011971296CC90129706
:103D30001396DC90E00EFE9CA0011124A985BA85A3
:103D4000A40FB51FAA0FBB1FAA0FBB1FAC5BBA4FB6
:103D5000EC901196FC90119712960C911297139675
:103D60009C90862F90E0AD85BE85A80FB91FAA0F45
:103D7000BB1FAA0FBB1FAC5BBA4F8C9011967C90F7
:103D8000119712966C90129713965C90610F70E0E9
:103D9000AD85BE85A60FB71FAA0FBB1FAA0FBB1FFD
:103DA000AC5BBA4F4C9011963C90119712961C91B7
:103DB000129713962C90E80FF91FEE0FFF1FEE0FCE
:103DC000FF1FEC5BFA4FB081B98321812A833281D6
:103DD0003B8383818C83FA01E60FF71FEE0FFF1FF1
:103DE000EE0FFF1FEC5BFA4F90819D83A181AE83A4
:103DF000B281BF83238128879701402F592DB701B6
:103E0000802F992D0F94CE2B882321F0E12CF12CBB
:103E100000E0912C9501A601B501C6010F94CE2BAF
:103E2000882319F05701C02ED92C242D332D412F72
:103E3000522D642D732D812F922D0F94CE2B88231C
:103E400021F0412C312C10E0212C282D372D462D2E
:103E5000552D682D772D862D952D0F94CE2B8823EB
:103E600021F0842C732C612E522C2D813E814F81A8
:103E700058856D817E818F8198850F94CE2B882304
:103E800021F01D821E821F82188629813A814B8172
:103E90005C8169817A818B819C810F94CE2B8823F0
:103EA00041F03D8139834E814A835F815B83888500
:103EB0008C8385E0EB85FC858E9FD0018F9FB00DB4
:103EC000112429853A85A20FB31FAA0FBB1FAA0F81
:103ED000BB1FAC5BBA4FBA87A9879501A601B50194
:103EE000C6010F94DC289701402F592D0F94DB2831
:103EF0006B017C01282D372D462D552D682D772DF2
:103F0000862D952D0F94DC28242D332D412F522DF5
:103F10000F94DB289B01AC01C701B6010F94DC288C
:103F20006B017C0129813A814B815C8169817A81B5
:103F30008B819C810F94DC282D813E814F81588597
:103F40000F94DB289B01AC01C701B6010F94DC285C
:103F500020E030E040E450E40F94D629A985BA85EA
:103F60006D937D938D939C9313972E960FB6F89433
:103F7000DEBF0FBECDBFDF91CF911F910F91FF909C
:103F8000EF90DF90CF90BF90AF909F908F907F90F9
:103F90006F905F904F903F902F9008952E9A809150
:103FA0000B018095827080930901A09A0895109268
:103FB0000905E7E9F3E085E0808381838283089542
:103FC0002E9AABE0B1E08C9180958270E9E0F1E04F
:103FD0008083A09A8C91809582708083A09A0895A6
:103FE000CF92DF92EF92FF920F94DF2120E030E03A
:103FF000A9010F94DC286B017C0120E030E0A901CD
:104000000F94D8212DEB37E346E055E387FF04C03A
:104010002DEB37E346E055EBC701B6010F94DC28E2
:104020006B017C0120E030E0A9010F94D82120E051
:1040300030E040E05FE387FF04C020E030E040E094
:104040005FEBC701B6010F94DC280F94482ACB011F
:10405000FF90EF90DF90CF900C94D3C60F94DF21A8
:1040600020E030E0A9010F94DC280F94482ACB010E
:104070000C94D3C60F94DF2129EC38EC48EC5EE3B6
:104080000F94D62920E030E040E05FE30F94DC2875
:104090000F944F2A862F0C9436C7CF92DF92EF925F
:1040A000FF92CF93DF9300D01F92CDB7DEB76B01A5
:1040B0007C0120E030E0A9010F94D82187FD1CC0CD
:1040C0006DEB77E386E095E3A70196010F94DC287A
:1040D00069837A838B839C8360E2CE0101960E9480
:1040E0008DC50F900F900F900F90DF91CF91FF90A3
:1040F000EF90DF90CF9008956DEB77E386E095EB3E
:10410000E3CF0F94DF2120E030E04AE754E40F943E
:10411000D62920E030E0A9010F94DC280C944D2032
:1041200063E972E084E690E00E94A7CB6AEB72E05C
:1041300084E690E00C94A7CB81110C94902068EB5E
:1041400071E084E190E00C94A7CB0E9426A90C9426
:104150009C200E941FE00C949C200E9443C30C945E
:104160009020FC0180819181A281B38180938002A3
:1041700090938102A0938202B09383028EEC92E02E
:104180000C946BBFCF93DF9300D01F92CDB7DEB7F7
:1041900080E090E0A0E8B0E489839A83AB83BC839D
:1041A000CE0101960E94B12080E090E0A0EFB1E442
:1041B0008093780290937902A0937A02B0937B0265
:1041C00080937C0290937D02A0937E02B0937F0245
:1041D000E0910305EE0FFF0BEA52FD4F80819181C4
:1041E0008330910559F184309105E9F1029761F42A
:1041F00080E090E0A8E4B3E48093780290937902A1
:10420000A0937A02B0937B028EED92E00E946BBF86
:1042100019821A821B821C82CE0101960E94B12053
:10422000809103058F5F84301CF5809303050F9008
:104230000F900F900F90DF91CF91089580E090E064
:10424000A8E4B3E48093780290937902A0937A0271
:10425000B0937B0280937C0290937D02A0937E02B8
:10426000B0937F02D1CF80E090E0A8E4B3E4F2CF36
:1042700010920305DCCF0C9489AC0C9489AC0C949F
:1042800089AC0C9489AC0C943BAC0C943BAC0C9476
:104290003BAC0C943BACCF93DF9300D01F92CDB7D7
:1042A000DEB70F944F2A0F94DD2169837A838B83C5
:1042B0009C83CE0101960E940AC50F900F900F902B
:1042C0000F90DF91CF9108950F94DF212AE037ED11
:1042D00043E25DE30F94D62920E030E0A9010F947A
:1042E000DC280C944B21CF92DF92EF92FF92CF9378
:1042F000DF9300D01F92CDB7DEB76B017C0120E0C9
:1043000030E0A9010F94D82187FD1BC06DEB77E346
:1043100086E095E3A70196010F94DC2869837A83F0
:104320008B839C83CE0101960E940AC50F900F904B
:104330000F900F90DF91CF91FF90EF90DF90CF9093
:1043400008956DEB77E386E095EBE4CF0F94DF21E2
:104350002AE037ED43E25DE30F94D62920E030E018
:10436000A9010F94DC280C9473210F94DF2120E025
:1043700030E0A9010F94DC280C947321CF92DF92D6
:10438000EF92FF926B017C0120E030E0A9010F94D5
:10439000D82187FD26C06DEB77E386E095E3A70182
:1043A00096010F94DC286B017C0120E030E0A9012C
:1043B0000F94D82120E030E040E05FE387FF04C0A5
:1043C00020E030E040E05FEBC701B6010F94DC284D
:1043D0000F94482ACB01FF90EF90DF90CF900C9480
:1043E00029C66DEB77E386E095EBD9CF0F94DF21FB
:1043F00020E030E0A9010F94DC280C94BE21CF937B
:10440000C82F0E94D6FD6093BE047093BF048093B2
:10441000C0049093C104C11112C0DC01CB01805EC5
:104420009044AD4FBF4F8093BA049093BB04A093C8
:10443000BC04B093BD041092B904CF91089580E0FC
:1044400090E0DC01F0CFCF92DF92EF92FF920F93DA
:104450001F930E94D6FD00914B0410914C042091B3
:104460004D0430914E046B017C01C01AD10AE20A5E
:10447000F30A9701860137FD11C020914A04209567
:1044800020934A046A547C4F8F4F9F4F60934B0494
:1044900070934C0480934D0490934E0481E090916E
:1044A0004A04911101C080E01F910F91FF90EF909D
:1044B000DF90CF900895CF92DF92EF92FF920F930B
:1044C0001F93CF9390915C02913009F461C06623F1
:1044D00051F01092CA031092C6031092C7031092B3
:1044E000C8031092C903C82F0E94D6FDC090C6030E
:1044F000D090C703E090C803F090C9039B01AC01C2
:104500002C193D094E095F0969017A01F7FC40C089
:104510002091CA03C7FD15C04C2F0C2E000C550B63
:104520004C5F5F4FE22F022E000CFF0B4E175F0710
:104530007CF144EFC42EDD24D394E12CF12C2C1714
:1045400034F438EEC32E33E0D32EE12CF12CC60E1A
:10455000D71EE81EF91EC092C603D092C703E09290
:10456000C803F092C903022F017010E084E2809F1B
:10457000B001819F700D701B112460597C4F82E344
:1045800090E00E94A7CB8091CA038F5F8093CA03FB
:10459000CF911F910F91FF90EF90DF90CF900895F2
:1045A000EF92FF920F931F93CF93DF9300D000D031
:1045B0001F921F92CDB7DEB78E010F5F1F4FD8013C
:1045C00030E020E0FB01E20FF31FE491ED932F5F59
:1045D0003F4F28303105B1F7877098E0899FB001CF
:1045E00011246064062E000C770B87ED91E10F9487
:1045F00099007801E8E0EE0EF11CF80161918F015D
:1046000087ED91E10F948301E016F106B1F728964A
:104610000FB6F894DEBF0FBECDBFDF91CF911F91D3
:104620000F91FF90EF900895CF92DF92EF92FF925B
:104630000F931F93CF93DF9300D000D0CDB7DEB799
:104640008A0146E0469F9001479F300D1124BC012E
:10465000620F731F46E050E0CE0101960F94FF20D9
:10466000C980DA80EB80FC80F80140815181628151
:1046700073818FEF9FEFC416D506E606F70640F06C
:1046800081E090E04C155D056E057F0508F080E047
:1046900026960FB6F894DEBF0FBECDBFDF91CF9147
:1046A0001F910F91FF90EF90DF90CF9008950F939F
:1046B0001F93CF93DF93CDB7DEB72E970FB6F89445
:1046C000DEBF0FBECDBF8A011E861D866F83788731
:1046D00089879A872FEF2B876038710581059105AF
:1046E00038F487ED91E10F94830181E090E02FC0D1
:1046F0009E01235F3F4FAE01495F5F4F69EB70E062
:104700008DE394E10E949AF497FD2CC08D859E85DF
:1047100026E0289FB001299F700D1124635C7B4E19
:1047200046E050E0CE0101960F94FF206D8187EDA9
:1047300091E10F94830101301105B9F26E81662376
:10474000A1F287ED91E10F94830182E090E02E9633
:104750000FB6F894DEBF0FBECDBFDF91CF911F9192
:104760000F9108959E01235F3F4FAE01495F5F4F58
:1047700063E670E08BEE91E10E949AF497FD0BC026
:104780008D859E8526E0289FB001299F700D1124FC
:1047900065517E4EC5CF6FE371E087ED91E10F94D7
:1047A0009900A3CFAB01BC014093B4115093B51154
:1047B0006093B6117093B7118CE293E10D947E046F
:1047C0008091030490910404009731F04AE050E096
:1047D00070E060E00D94F31F60E070E0CB0108959D
:1047E0008091030490910404009731F04AE050E076
:1047F00070E060E00D94C51E60E070E0CB010895AC
:104800000E94F02397FD0CC00E94F0236F3F7105BA
:104810008105910509F034F40E94F023862F089554
:1048200080E008958FEF089580910304909104042F
:10483000892B41F00E94002491E0811101C090E099
:10484000892F089591E0FCCFCF92DF92EF92FF92F3
:104850006B017C018091B9058F5F09F4AFC0809333
:10486000B9058091B9058093680680E1E8E7F2E038
:10487000AAEBB5E001900D928A95E1F720E030E0D7
:1048800040E752E46091260270912702809128024D
:10489000909129020F943E220F944F2A7093CB05DA
:1048A0006093CA05C092CC05D092CD05E092CE05AA
:1048B000F092CF05809142058093D005882381F046
:1048C00080913E0590913F05A0914005B091410532
:1048D0008093D1059093D205A093D305B093D405CE
:1048E00080914F11909150119093D6058093D505EA
:1048F00080916308909164089093D8058093D705C0
:1049000083E0EFEDF8E0A9EDB5E001900D928A9516
:10491000E1F7809167069091350590FB82F98093CD
:1049200067068091310590913205A0913305B091D1
:1049300034058093DC059093DD05A093DE05B093EC
:10494000DF0585E1EDE5F2E0A0EEB5E001900D9226
:104950008A95E1F70E946FC46093620670936306C4
:104960008093640690936506809124048093660684
:104970009091690E8091670693FB80F990912609CA
:1049800090FB81F98093670680E00F94311140E03D
:1049900050E0BA018CEB91E10F947E0440EB50E0C3
:1049A00069EB75E08CEB91E10F94A6058CEB91E13E
:1049B000FF90EF90DF90CF900D94450D81E04FCFA9
:1049C0008F929F92AF92BF92CF92DF92EF92FF921F
:1049D000CF936B017C0120E030E0A9010F94D82136
:1049E00087FFA3C06DEB77E386E095EBA701960107
:1049F0000F94DC286B017C0120E030E040E251E4C0
:104A00000F943E2220E030E048EC52E40F943E2226
:104A10004B015C0120E030E040E251ECC701B601FF
:104A20000F94D821181654F420E030E048EC52E4FA
:104A3000C701B6010F943C2B87FD8BC020E030E00E
:104A4000A901C701B6010F94D82187FF73C060E0A8
:104A500070E080EA90ECA50194010F94DC2820E03E
:104A600030E040E251E40F94D6290F94482A6B01BC
:104A70007C01F7FC64C020E137E240E050E00F9495
:104A80009A28CA01B9012AE030E040E050E00F94D2
:104A90009A28605D60931105C701B60128EE33E0E6
:104AA00040E050E00F949A289AE0892E912CA12C96
:104AB000B12CCA01B901A50194010F949A28605D37
:104AC00060931205C701B60124E630E040E050E0F3
:104AD0000F949A28CA01B901A50194010F949A284C
:104AE000605D609313058EE280931405C701B601E3
:104AF000A50194010F949A28C62FCA01B901A501F6
:104B000094010F949A28605D60931505C05DC09371
:104B1000160581E195E0CF91FF90EF90DF90CF9067
:104B2000BF90AF909F908F9008956DEB77E386E0F4
:104B300095E35CCF60E070E080EA90E48CCFF09485
:104B4000E094D094C094C11CD11CE11CF11C6DE216
:104B5000A1CF20E030E0A901C701B6010F94D82110
:104B600087FF6AC060E070E080EA90ECA5019401E4
:104B70000F94DC2820E030E040E251E40F94D62985
:104B80000F94482A4B015C0120E030E0A901C701E5
:104B9000B6010F943C2B87FD0BC020E030E040E2D3
:104BA00051E4C701B6010F94D82160E287FD13C01C
:104BB000B7FC47C0C501B40128EE33E040E050E047
:104BC0000F949A28CA01B9012AE030E040E050E091
:104BD0000F949A28605D60931205C501B40124E624
:104BE00030E040E050E00F949A288AE0C82ED12CA3
:104BF000E12CF12CCA01B901A70196010F949A2862
:104C0000605D609313058EE280931405C501B401C5
:104C1000A70196010F949A28C62FCA01B901A701CE
:104C200096010F949A28605D60931505C05DC0934E
:104C3000160582E195E06FCF60E070E080EA90E4D5
:104C400095CFB094A09490948094811C911CA11C49
:104C5000B11C6DE2C0CF0F94DF2120E030E048ECC2
:104C600052E40F94D62920E030E0A9010F94DC280B
:104C70000C94E024382F1092A40880918F08909112
:104C80009008A0919108B0919208B7FF08C01092C7
:104C90008F0810929008109291081092920820911B
:104CA0008F082093840810929F0880917F0818161F
:104CB000ECF4082E000C990B831B9109022E000CBA
:104CC000330B2817390794F097FF02C090E080E07B
:104CD00080938408092E000CAA0BBB0B80938F08CD
:104CE00090939008A0939108B093920880918408C3
:104CF0006623A9F090918508891714F4809385089C
:104D000020918508022E000C330B2D5F3F4F482F5A
:104D1000082E000C550B241735071CF48350809384
:104D200085080895E091F304E63010F581E08E0FD8
:104D30008093F30440918F085091900860919108FE
:104D4000709192089091850880917F0828E0E29FF9
:104D5000F0011124ED53FB4F2091AB113091AC11B8
:104D6000318320834283538364837583968387834F
:104D700008951F93CF93DF93CDB7DEB71F81809146
:104D8000B804181798F01093B8049E01265F3F4F9F
:104D90004885598560E570E087E694E00F949F218F
:104DA00081E0111101C080E00E94FF21DF91CF91CD
:104DB0001F9108950F931F93CF93DF936F3F11F4CB
:104DC0001092B8042091B804211123C08C010F94D3
:104DD0002521800F911FEC01C01BD10BC135D105DE
:104DE0003CF00197FC012491207C2038D1F3F3CFD3
:104DF000DD27AE01B80187E694E00F944621C9593A
:104E0000DB4F188280E0DF91CF911F910F910C94BE
:104E1000FF21DF91CF911F910F9108951F93CF93A1
:104E2000DF932091B804211121C0FC0101900020E2
:104E3000E9F73197EF01C81BD90BC135D1052CF02B
:104E40002291207C2038E1F3F5CF162FBC01DD271D
:104E5000AE0187E694E00F944A2CC959DB4F1882C3
:104E6000812FDF91CF911F910C94FF21DF91CF9182
:104E70001F9108950F931F930E94D6FD0091630424
:104E8000109164042091650430916604601B710BDD
:104E9000820B930B97FD0EC0809100018695817067
:104EA00091E089279091000190FF82604A9B846085
:104EB000809362048091620481709091620491FDFC
:104EC000826090916104981749F0813009F148F0AF
:104ED000823079F0833091F0809361041F910F91BB
:104EE0000895913079F09230B9F790916004915023
:104EF0000CC0992339F09330C1F3EECF9130A9F370
:104F0000923051F7909160049F5F90936004E4CFDA
:104F1000992359F3933001F7F5CFCF92DF92EF92B7
:104F2000FF92CF93C82F0E94D6FD6B017C0124EA2B
:104F300030E74DE75FE360911C0270911D028091A4
:104F40001E0290911F020F94D82187FD18C08AEF8E
:104F500090E0A0E0B0E08C0D9D1DAE1DBF1D8093C4
:104F6000500490935104A0935204B0935304C093FF
:104F70001602CF91FF90EF90DF90CF90089580E0E0
:104F800090E0DC01E8CFFC0180E09491992331F0BE
:104F9000907C903809F08F5F3196F7CF0895FC012F
:104FA00080E09191992329F0907C9038D1F38F5F24
:104FB000F8CF0895CF93C82F823071F4C4E0C15068
:104FC00008F443C088E0C89FB00111246551774EB2
:104FD0008C2F0E94D022F3CF63EE78E180E00E9414
:104FE000D0226BED78E181E00E94D02263ED78E180
:104FF00082E00E94D0226BEC78E186E00E94D02211
:1050000063EC78E187E00E94D022C13081F46BEB41
:1050100078E185E00E94D02263EB78E184E00E9491
:10502000D0226BEA78E183E0CF910C94D02263EA3E
:1050300078E183E00E94D0226BE978E184E00E946D
:10504000D02263E978E185E0EFCFCF9108950F9307
:105050001F93CF93DF9387E090E00F94421CEC0105
:105060009091DC112091DE118091DD118C832B83D6
:105070009D8312E01A831882198201E00E83D09377
:10508000E711C093E61161E00E9433FC60E08B8180
:105090000E9433FC61E08D810E9433FC0E83098302
:1050A00018821A838091DF1188608093DF11C4E039
:1050B000C093E21161E08091DB110E9433FC61E05A
:1050C0008091DB110E9405FC8BE39DE00197F1F7D5
:1050D0006091DF11606270E087ED91E10F949900BB
:1050E0008BE496E40197F1F76091DF11606270E064
:1050F00087ED91E10F94990083E592E00197F1F734
:105100006091DF11606270E087ED91E10F9499008A
:105110006091DF11606270E087ED91E10F9499007A
:10512000C093E0116CE070E087ED91E10F9499007D
:105130000F9470011093E11166E070E087ED91E14A
:105140000F94990062E070E087ED91E10F9499006F
:105150008BE39FE10197F1F781E02091AB11309152
:10516000AC11265A334509F080E00E94DA27DF911E
:10517000CF911F910F910D947001CF93DF930E94F7
:105180002728E1E0F1E080818D7F8083C2E0D1E0DB
:10519000888180958270A0E0B1E08C9380818E7FC1
:1051A00080838881809581708C9352985A9A0E944E
:1051B0003A2710926004DF91CF9108954FEF5FEF8F
:1051C0000C945723AF92BF92CF92DF92EF92FF924F
:1051D0000F931F93CF93DF9300D01F92CDB7DEB70D
:1051E0006C015B017A0110E000E00E151F05E8F488
:1051F00019821A821B821C82AE014F5F5F4FB5017C
:10520000C6010E941F1D6C0169817A818B819C817E
:10521000611571058105910541F0A701401B510BF6
:105220000E945723080F191FE0CFC8010F900F905D
:105230000F900F90DF91CF911F910F91FF90EF9002
:10524000DF90CF90BF90AF900895CF92DF92EF9212
:10525000FF920F931F93CF93DF9300D01F92CDB790
:10526000DEB77C01062F6A01122F11160CF03EC02A
:10527000AE014F5F5F4F69E17DE1C7010E941F1DD5
:105280007C0169817A818B819C8161157105810521
:10529000910561F16D3371058105910509F44BC0EC
:1052A0006E3771058105910509F445C06A327105B3
:1052B0008105910549F507FF10C086E299E10E3F8F
:1052C00011F082E299E1412F012E000C550B69E1AA
:1052D0007DE10E94E228181B5EC065E470E080E07A
:1052E00090E00E94DE28115041F510E0812F0F90D0
:1052F0000F900F900F90DF91CF911F910F91FF9022
:10530000EF90DF90CF90089564327105810591058B
:1053100071F4C114D10459F0412F012E000C550B2A
:1053200069E17DE1C6010E94E228181B9ECF0E9420
:10533000DE2811509ACF07FDC0CF61E089819A81A4
:10534000AB81BC81CD97A105B10509F460E0600F88
:105350006A30ACF01150862F6AE00F946428092F50
:10536000682F880F770B605D7F4F072E000C880B2E
:10537000990B0E94DE28112309F4B7CF602F062E67
:10538000000C770B605D7F4F072E000C880B990B8C
:105390000E94DE281150112309F4A7CF412F012EBE
:1053A000000C550B69E17DE1C7010E94E228181B42
:1053B0009DCF4FEF5FEF6CE17DE10C94E2284FEF62
:1053C0005FEF69E17DE10C94E2280D943E01FC0160
:1053D000A081B1811C92A281B3818C918F5F8C934B
:1053E0000280F381E02D608180E00C94E5294F92EA
:1053F0005F926F927F928F929F92BF92CF92DF9235
:10540000EF92FF920F931F93CF93DF9300D000D0C2
:105410001F921F92CDB7DEB77C013B016A014901A3
:10542000FB016081FC0180810E94E529C114D10447
:1054300071F1FA82E9827C826B82011121C0AE0196
:105440004B5F5F4FB401C6010E941F1D6C016D814F
:105450007E818F8198856115710581059105B9F06F
:105460000E94DE28F70180818F5F8083843138F3CA
:10547000CE0101960E94E729E2CFB12C860129C016
:105480008601B12C26C0452846284728B1F7289622
:105490000FB6F894DEBF0FBECDBFDF91CF911F9145
:1054A0000F91FF90EF90DF90CF90BF909F908F90E3
:1054B0007F906F905F904F900895B39407C0B110A4
:1054C0002EC001151105C9F20F5F1F4F01151105FF
:1054D000A9F2AE014B5F5F4FB401C6010E941F1DD0
:1054E0006C014D805E806F807884411451046104AA
:1054F0007104A9F0F0E24F16510461047104F9F24D
:10550000D301C2018D97A109B1090297A105B10587
:1055100030F04BE2441651046104710471F6F70156
:105520008081482F4B0D5527551F4531510534F0CB
:10553000853020F0CE0101960E94E72981E04114D8
:1055400051046104710409F480E0B80EF701808110
:105550008B0D8083BB2009F496CFBA94AE014B5FCC
:105560005F4FB401C8010E941F1D8C016D817E81B7
:105570008F8198850E94DE28EDCFCF92DF92EF9247
:10558000FF920F931F93CF93DF937B01C42F890169
:10559000682F80E00E94E529C12CE114F10421F07C
:1055A000C7010E94C327C82ED12C0115110521F077
:1055B000C8010E94CF27D82EC0FF1DC084E190E013
:1055C0008C199109C7FC93958D199109D7FC939576
:1055D00097FD019695958795C4E1DBEED80F8D2F49
:1055E0008C0F87FD09C060E270E080E090E00E94CF
:1055F000DE28C150F4CFC4E1CC2059F040910B0516
:1056000050910C052C2F60910F05C7010E94252990
:10561000C82FDD2051F04C2F0C2E000C550B6CE1E7
:105620007DE1C8010E94E228C81B1C1644F460E218
:1056300070E080E090E00E94DE28C150F6CFDF915C
:10564000CF911F910F91FF90EF90DF90CF90089531
:105650002F923F924F925F926F927F928F929F9282
:10566000AF92BF92CF92DF92EF92FF920F931F9370
:10567000CF93DF935C010F94252101968501080FDC
:10568000191FC8010F942521F8016080C1E0611045
:1056900001C0C0E0F801E80FF91FFF24F3948181F5
:1056A000811101C0F12C60E084E00E943A267090E4
:1056B0008508D0E0CC2ED12CFFEFCF1ADF0ACF0C1B
:1056C000D11C92E0592E25E0422E711092C080919B
:1056D0005A028823A1F0E0915C02E2506AE57DE184
:1056E000E33038F4F0E0EE0FFF1FE251FD4F608130
:1056F000718130E020E043E08D2F0E94BD2AC2E09E
:10570000662079F0E2E07E120BC080915A02882375
:1057100039F030E020E041E0B8018D2F0E94BD2A31
:10572000C3E0F1E0CF16D10409F4CF5FC71194C0F4
:1057300080915A02882309F48DC030E020E042E0D5
:1057400067E67DE18D2F0E94BD2A3090BA086D2F4B
:105750008BE00E94E5290E942322282E37FE56C0A6
:105760008090610890906208E0906308F09064086F
:1057700062E070E080E090E00E94DE28C4010E94B8
:10578000D3C60E94D9296FE270E080E090E00E94C9
:10579000DE28211044C08FEF21E0381629F0232D98
:1057A000330C330B37FD20E0429EF0011124E45905
:1057B000F94F8481882399F160E270E080E090E005
:1057C0000E94DE28EAE0EE16F1040CF467C060E205
:1057D00070E080E090E00E94DE28F4E6EF16F1042D
:1057E0000CF455C060E270E080E090E00E94DE289A
:1057F0001BC081E0781283CF80915A02882309F47C
:105800007ECF30E020E041E0B50176CF80904D11B1
:1058100090904E11E0904F11F0905011A9CFC70118
:105820000E94A8C60E94D92961E070E080E090E063
:105830000E94DE2860E270E080E090E00E94DE28B6
:105840008AE0E816F10434F460E270E080E090E071
:105850000E94DE2850925A027394DF5FD43009F020
:1058600034CFCF5FC0937F08DF91CF911F910F910D
:10587000FF90EF90DF90CF90BF90AF909F908F9070
:105880007F906F905F904F903F902F90089561E0D0
:1058900070E080E090E00E94DE28D6CF61E070E00A
:1058A00080E090E00E94DE2860E270E080E090E01E
:1058B000F2CF80915A02882351F06091F8047091E0
:1058C000F90430E020E041E081E00C94BD2A089525
:1058D000CF92DF92EF92FF9269017A010E94E5294F
:1058E000C701B601FF90EF90DF90CF900C94DE28B7
:1058F000CF92DF92FF920F931F93CF93DF938C0190
:10590000EB01C0900B05D0900C05F0900F0561E005
:1059100080E00E94E52923E1A6016F2DC8010E94C5
:105920002529182F209711F16AE370E080E090E0BC
:105930000E94DE28CE010E94CF278F5F115061E0C8
:10594000181708F462E020E230E040E050E094E113
:10595000981B892F0E94682CCE01DF91CF911F9157
:105960000F91FF90DF90CF900C94D929DF91CF91C8
:105970001F910F91FF90DF90CF900895CF92DF920B
:10598000EF92FF920F931F93CF93DF93C82ED62EE3
:105990007A01E901209709F467C0C901002381F168
:1059A0000E94C327182F2EE330E040E050E0C110E2
:1059B00004C020E230E040E050E06D2D80E00E9425
:1059C000682C22E1211B40910B0550910C05609140
:1059D0000F05C7010E942529F82E112309F448C09C
:1059E0006AE370E080E090E00E94DE28FF2059F03A
:1059F00060E270E080E090E00E94DE28FA94F6CF4A
:105A00000E94CF27CFCFCE01002351F0DF91CF915D
:105A10001F910F91FF90EF90DF90CF900C94DF29B2
:105A2000DF91CF911F910F91FF90EF90DF90CF907A
:105A30000C94D9292EE330E040E050E06D2D80E059
:105A40000E94682C40910B0550910C0522E1609159
:105A50000F05C701DF91CF911F910F91FF90EF903C
:105A6000DF90CF900C9425298111E4CF10E0A1CFD5
:105A7000DF91CF911F910F91FF90EF90DF90CF902A
:105A800008950F93CF93DF93EA01811101C020E2C3
:105A9000022E000C330B440B550B80E00E94682C47
:105AA00040910B0550910C0522E160910F05CE014C
:105AB0000E942529C82FCC2341F060E270E080E0ED
:105AC00090E00E94DE28C150F6CF602F000F770BC8
:105AD000880B990BDF91CF910F910C94DE280F93D7
